{
  "fileName": "Token_Exchange.sol",
  "contractName": "Token_exchange",
  "source": "pragma solidity ^0.6.0;\n\nimport \"./IERC20.sol\";\nimport \"./Address.sol\";\nimport \"./SafeMath.sol\";\n\ncontract Token_exchange{\n\n     uint256 sellid_counter=0;\n     uint256 buyid_counter=0;\n     uint256 negotiate_counter=0;\n\n    enum askingValueForm{\n        ETHER,\n        TOKEN\n    }\n\n\n    enum requestStatus{\n        FORSALE,\n        CLOSED\n    }\n\n    enum counterRequestStatus{\n        REJECTED,\n        ACCEPTED,\n        PENDING,\n        CANCELED,\n        CLOSED\n    }\n\n    struct sellRequest{\n        address tokenToSell;\n        uint256 amount;\n        askingValueForm form;\n        uint256 askingValue;\n        address tokenToExchange;\n        address payable seller;\n        uint256 quantity;\n        requestStatus status;\n    }\n\n    struct buyRequest{\n        uint256 sellRequestID;\n        address buyer;\n        \n    }\n\n    struct counterRequest{\n        uint256 sellRequestID;\n        uint256 askingValue;\n        address payable buyer;\n        string comment;\n        counterRequestStatus status;\n    } \n\n    mapping(uint256=>sellRequest) public sellRequests;\n    mapping(uint256=>counterRequest) public counterRequests;\n    mapping(uint256=>buyRequest) public acceptRequests;\n\n\n    function registerRequest(address _tokenToSell , uint256 _amount ,uint256 _quantity ,askingValueForm _form, uint256 _askingValue , address _tokenToExchange) external returns(uint256 id){\n        require(Address.isContract(msg.sender),\"Seller cannot be a contract\");\n        sellRequest memory request;\n        request.tokenToSell=_tokenToSell;\n        request.amount=_amount;\n        if(_form==askingValueForm.TOKEN){\n            request.tokenToExchange=_tokenToExchange; \n        }\n\n        request.askingValue=_askingValue;\n        request.seller=msg.sender;\n        request.status=requestStatus.FORSALE;\n        sellRequests[sellid_counter]=request;\n        IERC20 tokenAddress = IERC20(_tokenToSell);\n        request.quantity=_quantity;\n        tokenAddress.transferFrom(msg.sender,address(this),(SafeMath.mul(_amount,_quantity)));\n\n        emit sellRequestAltered(sellid_counter,_tokenToSell , _amount,_quantity , _form, _askingValue , _tokenToExchange , msg.sender , request.status);\n        sellid_counter=SafeMath.add(sellid_counter,1);\n\n        return (SafeMath.sub(sellid_counter,1));\n    }\n\n    function recieveAssets(uint256 _sellid) public{\n        address seller=sellRequests[_sellid].seller;\n        address buyer=acceptRequests[_sellid].buyer;\n        IERC20 tokenToSell=IERC20(sellRequests[_sellid].tokenToSell);\n        uint256 amount=sellRequests[_sellid].amount;\n\n        tokenToSell.transfer(msg.sender,amount);\n\n    }\n\n    function buySellRequest(uint256 _sellid ) external returns (uint256){\n        require(sellRequests[_sellid].status==requestStatus.FORSALE,\"This Sell Request is no longer for sale\");\n        require(msg.sender!=sellRequests[_sellid].seller,\"Seller cannot Accept his own offer\");\n        require(!Address.isContract(msg.sender),\"Offer cannot be accepted by a contract\");\n        \n        uint256 amount;\n        if(sellRequests[_sellid].form==askingValueForm.TOKEN){\n            \n            IERC20 tokenAddress=IERC20(sellRequests[_sellid].tokenToExchange);\n            amount= sellRequests[_sellid].askingValue;\n            require(tokenAddress.balanceOf(msg.sender)>=amount,\"You dont have the funds to buy this token\");\n            \n            tokenAddress.transferFrom(msg.sender,sellRequests[_sellid].seller,amount);\n            }\n        else{\n            amount= sellRequests[_sellid].askingValue;\n            require(msg.sender.balance>=amount,\"You dont have the funds to buy this token\");\n            sellRequests[_sellid].seller.transfer(amount);\n            }\n        \n        IERC20 tokenToSell=IERC20(sellRequests[_sellid].tokenToSell);\n        amount=sellRequests[_sellid].amount;\n        tokenToSell.transfer(msg.sender,amount);\n\n        sellRequests[_sellid].quantity=SafeMath.sub(sellRequests[_sellid].quantity,1);\n        if(sellRequests[_sellid].quantity<=0){\n            sellRequests[_sellid].status=requestStatus.CLOSED;\n        }\n        buyRequest memory request;\n        request.sellRequestID=_sellid;\n        request.buyer=msg.sender;\n        \n\n        acceptRequests[buyid_counter]=request;\n        emit acceptRequestAltered(buyid_counter,_sellid , msg.sender);\n        buyid_counter=SafeMath.add(buyid_counter,1);\n\n        recieveAssets(_sellid);\n\n\n        \n        emit sellRequestAltered(_sellid,sellRequests[_sellid].tokenToSell , sellRequests[_sellid].amount,sellRequests[_sellid].quantity, sellRequests[_sellid].form, sellRequests[_sellid].askingValue , sellRequests[_sellid].tokenToExchange ,sellRequests[_sellid].seller , sellRequests[_sellid].status);\n        \n        return (SafeMath.sub(buyid_counter,1));\n\n\n    }\n\n    \n\n\n\n\n\n\n    function negotiateRequest(uint256 _sellid , uint256 _askingValue , string calldata _comment ) external returns(uint256) {\n        require(msg.sender.balance>=_askingValue,\"You do not have the funds to make such an offer\");\n        counterRequest memory request;\n        request.sellRequestID=_sellid;\n        request.askingValue=_askingValue;\n        request.comment=_comment;\n        request.status=counterRequestStatus.PENDING;\n\n        counterRequests[negotiate_counter]=request;\n        emit counterRequestAltered(negotiate_counter,_sellid, _askingValue  , _comment , request.status );\n        negotiate_counter++;\n        return (negotiate_counter-1);\n    }\n\n    function acceptCounterRequest(uint256 _id) external {\n        uint256 sell_id = counterRequests[_id].sellRequestID;\n        require(sellRequests[sell_id].seller==msg.sender,\"Only Seller can Accept a Counter Request\");\n        address buyer=counterRequests[_id].buyer;\n        address seller= sellRequests[sell_id].seller;\n  \n        counterRequests[_id].status=counterRequestStatus.ACCEPTED;\n        }\n\n    function buyCounterRequest(uint256 _id) external{\n        uint256 _sellid = counterRequests[_id].sellRequestID;\n        require(counterRequests[_id].status==counterRequestStatus.ACCEPTED,\"Counter Request must be accepted\");\n        \n        require(msg.sender==counterRequests[_id].buyer);\n        \n        uint256 amount;\n        IERC20 tokenToSell=IERC20(sellRequests[_sellid].tokenToSell);\n        amount=sellRequests[_sellid].amount;\n        tokenToSell.transfer(msg.sender,amount);\n\n        sellRequests[_sellid].quantity=SafeMath.sub(sellRequests[_sellid].quantity,1);\n        if(sellRequests[_sellid].quantity<=0){\n            sellRequests[_sellid].status=requestStatus.CLOSED;\n        }\n\n        \n        if(sellRequests[_sellid].form==askingValueForm.TOKEN){\n            \n            IERC20 tokenAddress=IERC20(sellRequests[_sellid].tokenToExchange);\n            amount= counterRequests[_sellid].askingValue;\n            require(tokenAddress.balanceOf(msg.sender)>=amount,\"You dont have the funds to buy this token\");\n            require(tokenAddress.allowance(msg.sender,address(this))>=amount,\"Buyer needs to approve required tokens to contract first\");\n            tokenAddress.transferFrom(msg.sender,sellRequests[_sellid].seller,amount);\n            }\n        else{\n            amount= counterRequests[_sellid].askingValue;\n            require(msg.sender.balance>=amount,\"You dont have the funds to buy this token\");\n            sellRequests[_sellid].seller.transfer(amount);\n            }\n    \n\n        // sellRequests[sell_id].quantity-=1;\n        // if(sellRequests[sell_id].quantity<=0){\n        //     sellRequests[sell_id].status=requestStatus.CLOSED;\n        // }\n\n        emit counterRequestAltered(_id,_sellid, counterRequests[_sellid].askingValue  , counterRequests[_id].comment , counterRequests[_id].status );\n        emit sellRequestAltered(_sellid,sellRequests[_sellid].tokenToSell , sellRequests[_sellid].amount ,sellRequests[_sellid].quantity, sellRequests[_sellid].form, sellRequests[_sellid].askingValue , sellRequests[_sellid].tokenToExchange ,sellRequests[_sellid].seller , sellRequests[_sellid].status);\n    }\n\n\n    function cancelCounterRequest(uint256 _id) external {\n        uint256 sell_id = counterRequests[_id].sellRequestID;\n        address buyer=counterRequests[_id].buyer;\n        address seller= sellRequests[sell_id].seller;\n        require(msg.sender==seller || msg.sender==buyer,\"Only Seller or Owner of the Counter request can cancel couterRequest\");\n\n\n\n        if(msg.sender==seller){\n            counterRequests[sell_id].status=counterRequestStatus.REJECTED;\n        }\n        else if(msg.sender==buyer){\n            counterRequests[sell_id].status=counterRequestStatus.CANCELED;\n        }\n\n         emit counterRequestAltered(_id,sell_id, counterRequests[_id].askingValue  , counterRequests[_id].comment , counterRequests[_id].status );\n    }\n\n    function depositRequests(uint256 sell_id , uint256 quantity) external{\n        require(sellRequests[sell_id].seller==msg.sender,\"Only Seller of these requests can deposit Requests\");\n        SafeMath.add(sellRequests[sell_id].quantity, quantity);\n        IERC20 tokenToSell = IERC20(sellRequests[sell_id].tokenToSell);\n        uint256 amount=sellRequests[sell_id].amount;\n        require(tokenToSell.balanceOf(msg.sender)>=SafeMath.mul(amount,quantity),\"Seller must have the funds being put for sale\");\n        if(sellRequests[sell_id].status==requestStatus.CLOSED){\n            sellRequests[sell_id].status=requestStatus.FORSALE;\n        }\n\n\n        tokenToSell.transferFrom(msg.sender,address(this),amount*quantity);\n        emit sellRequestAltered(sell_id,sellRequests[sell_id].tokenToSell , sellRequests[sell_id].amount,sellRequests[sell_id].quantity, sellRequests[sell_id].form, sellRequests[sell_id].askingValue , sellRequests[sell_id].tokenToExchange ,sellRequests[sell_id].seller , sellRequests[sell_id].status);\n\n    }\n\n    function withdrawRequests(uint256 sell_id , uint256 quantity) external{\n        require(sellRequests[sell_id].seller==msg.sender,\"Only Seller of these requests can withdraw Requests\");\n        require(sellRequests[sell_id].quantity>=quantity,\"Seller must have enough requests deposited to withdraw the specific amount\");\n\n        IERC20 tokenToSell=IERC20(sellRequests[sell_id].tokenToSell);\n        uint256 amount= sellRequests[sell_id].amount;\n\n        tokenToSell.transfer(msg.sender,SafeMath.mul(amount,quantity));\n        sellRequests[sell_id].quantity-=quantity;\n\n        if(sellRequests[sell_id].quantity<=0){\n            sellRequests[sell_id].status=requestStatus.CLOSED;\n        }\n        emit sellRequestAltered(sell_id,sellRequests[sell_id].tokenToSell , sellRequests[sell_id].amount ,sellRequests[sell_id].quantity, sellRequests[sell_id].form, sellRequests[sell_id].askingValue , sellRequests[sell_id].tokenToExchange ,sellRequests[sell_id].seller , sellRequests[sell_id].status);\n    }\n\n\n    \n\n    \n\n\n    \n    event sellRequestAltered(uint256 _id,address _tokenToSell , uint256 _amount,uint256 quantity , askingValueForm _form, uint256 _askingValue , address _tokenToExchange , address _seller , requestStatus _status);\n\n    event acceptRequestAltered(uint256 _id ,uint256 sell_id, address _buyer);\n\n    event counterRequestAltered(uint256 id , uint256 sell_id, uint256 _askingValue  , string _comment , counterRequestStatus _status);\n}",
  "sourcePath": "contracts/Token_Exchange.sol",
  "abi": [
    {
      "anonymous": false,
      "inputs": [
        {
          "indexed": false,
          "internalType": "uint256",
          "name": "_id",
          "type": "uint256"
        },
        {
          "indexed": false,
          "internalType": "uint256",
          "name": "sell_id",
          "type": "uint256"
        },
        {
          "indexed": false,
          "internalType": "address",
          "name": "_buyer",
          "type": "address"
        }
      ],
      "name": "acceptRequestAltered",
      "type": "event"
    },
    {
      "anonymous": false,
      "inputs": [
        {
          "indexed": false,
          "internalType": "uint256",
          "name": "id",
          "type": "uint256"
        },
        {
          "indexed": false,
          "internalType": "uint256",
          "name": "sell_id",
          "type": "uint256"
        },
        {
          "indexed": false,
          "internalType": "uint256",
          "name": "_askingValue",
          "type": "uint256"
        },
        {
          "indexed": false,
          "internalType": "string",
          "name": "_comment",
          "type": "string"
        },
        {
          "indexed": false,
          "internalType": "enum Token_exchange.counterRequestStatus",
          "name": "_status",
          "type": "uint8"
        }
      ],
      "name": "counterRequestAltered",
      "type": "event"
    },
    {
      "anonymous": false,
      "inputs": [
        {
          "indexed": false,
          "internalType": "uint256",
          "name": "_id",
          "type": "uint256"
        },
        {
          "indexed": false,
          "internalType": "address",
          "name": "_tokenToSell",
          "type": "address"
        },
        {
          "indexed": false,
          "internalType": "uint256",
          "name": "_amount",
          "type": "uint256"
        },
        {
          "indexed": false,
          "internalType": "uint256",
          "name": "quantity",
          "type": "uint256"
        },
        {
          "indexed": false,
          "internalType": "enum Token_exchange.askingValueForm",
          "name": "_form",
          "type": "uint8"
        },
        {
          "indexed": false,
          "internalType": "uint256",
          "name": "_askingValue",
          "type": "uint256"
        },
        {
          "indexed": false,
          "internalType": "address",
          "name": "_tokenToExchange",
          "type": "address"
        },
        {
          "indexed": false,
          "internalType": "address",
          "name": "_seller",
          "type": "address"
        },
        {
          "indexed": false,
          "internalType": "enum Token_exchange.requestStatus",
          "name": "_status",
          "type": "uint8"
        }
      ],
      "name": "sellRequestAltered",
      "type": "event"
    },
    {
      "inputs": [
        {
          "internalType": "uint256",
          "name": "_id",
          "type": "uint256"
        }
      ],
      "name": "acceptCounterRequest",
      "outputs": [],
      "stateMutability": "nonpayable",
      "type": "function"
    },
    {
      "inputs": [
        {
          "internalType": "uint256",
          "name": "",
          "type": "uint256"
        }
      ],
      "name": "acceptRequests",
      "outputs": [
        {
          "internalType": "uint256",
          "name": "sellRequestID",
          "type": "uint256"
        },
        {
          "internalType": "address",
          "name": "buyer",
          "type": "address"
        }
      ],
      "stateMutability": "view",
      "type": "function"
    },
    {
      "inputs": [
        {
          "internalType": "uint256",
          "name": "_id",
          "type": "uint256"
        }
      ],
      "name": "buyCounterRequest",
      "outputs": [],
      "stateMutability": "nonpayable",
      "type": "function"
    },
    {
      "inputs": [
        {
          "internalType": "uint256",
          "name": "_sellid",
          "type": "uint256"
        }
      ],
      "name": "buySellRequest",
      "outputs": [
        {
          "internalType": "uint256",
          "name": "",
          "type": "uint256"
        }
      ],
      "stateMutability": "nonpayable",
      "type": "function"
    },
    {
      "inputs": [
        {
          "internalType": "uint256",
          "name": "_id",
          "type": "uint256"
        }
      ],
      "name": "cancelCounterRequest",
      "outputs": [],
      "stateMutability": "nonpayable",
      "type": "function"
    },
    {
      "inputs": [
        {
          "internalType": "uint256",
          "name": "",
          "type": "uint256"
        }
      ],
      "name": "counterRequests",
      "outputs": [
        {
          "internalType": "uint256",
          "name": "sellRequestID",
          "type": "uint256"
        },
        {
          "internalType": "uint256",
          "name": "askingValue",
          "type": "uint256"
        },
        {
          "internalType": "address payable",
          "name": "buyer",
          "type": "address"
        },
        {
          "internalType": "string",
          "name": "comment",
          "type": "string"
        },
        {
          "internalType": "enum Token_exchange.counterRequestStatus",
          "name": "status",
          "type": "uint8"
        }
      ],
      "stateMutability": "view",
      "type": "function"
    },
    {
      "inputs": [
        {
          "internalType": "uint256",
          "name": "sell_id",
          "type": "uint256"
        },
        {
          "internalType": "uint256",
          "name": "quantity",
          "type": "uint256"
        }
      ],
      "name": "depositRequests",
      "outputs": [],
      "stateMutability": "nonpayable",
      "type": "function"
    },
    {
      "inputs": [
        {
          "internalType": "uint256",
          "name": "_sellid",
          "type": "uint256"
        },
        {
          "internalType": "uint256",
          "name": "_askingValue",
          "type": "uint256"
        },
        {
          "internalType": "string",
          "name": "_comment",
          "type": "string"
        }
      ],
      "name": "negotiateRequest",
      "outputs": [
        {
          "internalType": "uint256",
          "name": "",
          "type": "uint256"
        }
      ],
      "stateMutability": "nonpayable",
      "type": "function"
    },
    {
      "inputs": [
        {
          "internalType": "uint256",
          "name": "_sellid",
          "type": "uint256"
        }
      ],
      "name": "recieveAssets",
      "outputs": [],
      "stateMutability": "nonpayable",
      "type": "function"
    },
    {
      "inputs": [
        {
          "internalType": "address",
          "name": "_tokenToSell",
          "type": "address"
        },
        {
          "internalType": "uint256",
          "name": "_amount",
          "type": "uint256"
        },
        {
          "internalType": "uint256",
          "name": "_quantity",
          "type": "uint256"
        },
        {
          "internalType": "enum Token_exchange.askingValueForm",
          "name": "_form",
          "type": "uint8"
        },
        {
          "internalType": "uint256",
          "name": "_askingValue",
          "type": "uint256"
        },
        {
          "internalType": "address",
          "name": "_tokenToExchange",
          "type": "address"
        }
      ],
      "name": "registerRequest",
      "outputs": [
        {
          "internalType": "uint256",
          "name": "id",
          "type": "uint256"
        }
      ],
      "stateMutability": "nonpayable",
      "type": "function"
    },
    {
      "inputs": [
        {
          "internalType": "uint256",
          "name": "",
          "type": "uint256"
        }
      ],
      "name": "sellRequests",
      "outputs": [
        {
          "internalType": "address",
          "name": "tokenToSell",
          "type": "address"
        },
        {
          "internalType": "uint256",
          "name": "amount",
          "type": "uint256"
        },
        {
          "internalType": "enum Token_exchange.askingValueForm",
          "name": "form",
          "type": "uint8"
        },
        {
          "internalType": "uint256",
          "name": "askingValue",
          "type": "uint256"
        },
        {
          "internalType": "address",
          "name": "tokenToExchange",
          "type": "address"
        },
        {
          "internalType": "address payable",
          "name": "seller",
          "type": "address"
        },
        {
          "internalType": "uint256",
          "name": "quantity",
          "type": "uint256"
        },
        {
          "internalType": "enum Token_exchange.requestStatus",
          "name": "status",
          "type": "uint8"
        }
      ],
      "stateMutability": "view",
      "type": "function"
    },
    {
      "inputs": [
        {
          "internalType": "uint256",
          "name": "sell_id",
          "type": "uint256"
        },
        {
          "internalType": "uint256",
          "name": "quantity",
          "type": "uint256"
        }
      ],
      "name": "withdrawRequests",
      "outputs": [],
      "stateMutability": "nonpayable",
      "type": "function"
    }
  ],
  "bytecode": "0x6080604052600080556000600155600060025534801561001e57600080fd5b50613a928061002e6000396000f3fe608060405234801561001057600080fd5b50600436106100b45760003560e01c806381c54f551161007157806381c54f55146102fb57806396be0cc61461035a578063ac89a527146103fd578063b106518414610435578063bc4d2c1814610463578063cd70f37a14610491576100b4565b80631a5230bb146100b95780632597b642146101845780633a4a5462146101c65780634ce2798c146101f457806363fa76731461022c578063739b2fb2146102cd575b600080fd5b6100e5600480360360208110156100cf57600080fd5b8101908080359060200190929190505050610575565b604051808973ffffffffffffffffffffffffffffffffffffffff16815260200188815260200187600181111561011757fe5b81526020018681526020018573ffffffffffffffffffffffffffffffffffffffff1681526020018473ffffffffffffffffffffffffffffffffffffffff16815260200183815260200182600181111561016c57fe5b81526020019850505050505050505060405180910390f35b6101b06004803603602081101561019a57600080fd5b8101908080359060200190929190505050610637565b6040518082815260200191505060405180910390f35b6101f2600480360360208110156101dc57600080fd5b8101908080359060200190929190505050611055565b005b61022a6004803603604081101561020a57600080fd5b8101908080359060200190929190803590602001909291905050506111de565b005b6102b76004803603606081101561024257600080fd5b8101908080359060200190929190803590602001909291908035906020019064010000000081111561027357600080fd5b82018360208201111561028557600080fd5b803590602001918460018302840111640100000000831117156102a757600080fd5b909192939192939050505061168d565b6040518082815260200191505060405180910390f35b6102f9600480360360208110156102e357600080fd5b81019080803590602001909291905050506118fc565b005b6103276004803603602081101561031157600080fd5b8101908080359060200190929190505050611c5e565b604051808381526020018273ffffffffffffffffffffffffffffffffffffffff1681526020019250505060405180910390f35b6103e7600480360360c081101561037057600080fd5b81019080803573ffffffffffffffffffffffffffffffffffffffff1690602001909291908035906020019092919080359060200190929190803560ff16906020019092919080359060200190929190803573ffffffffffffffffffffffffffffffffffffffff169060200190929190505050611ca2565b6040518082815260200191505060405180910390f35b6104336004803603604081101561041357600080fd5b810190808035906020019092919080359060200190929190505050612168565b005b6104616004803603602081101561044b57600080fd5b81019080803590602001909291905050506126e2565b005b61048f6004803603602081101561047957600080fd5b8101908080359060200190929190505050613194565b005b6104bd600480360360208110156104a757600080fd5b8101908080359060200190929190505050613314565b604051808681526020018581526020018473ffffffffffffffffffffffffffffffffffffffff168152602001806020018360048111156104f957fe5b8152602001828103825284818151815260200191508051906020019080838360005b8381101561053657808201518184015260208101905061051b565b50505050905090810190601f1680156105635780820380516001836020036101000a031916815260200191505b50965050505050505060405180910390f35b60036020528060005260406000206000915090508060000160009054906101000a900473ffffffffffffffffffffffffffffffffffffffff16908060010154908060020160009054906101000a900460ff16908060030154908060040160009054906101000a900473ffffffffffffffffffffffffffffffffffffffff16908060050160009054906101000a900473ffffffffffffffffffffffffffffffffffffffff16908060060154908060070160009054906101000a900460ff16905088565b600080600181111561064557fe5b6003600084815260200190815260200160002060070160009054906101000a900460ff16600181111561067457fe5b146106ca576040517f08c379a00000000000000000000000000000000000000000000000000000000081526004018080602001828103825260278152602001806137f56027913960400191505060405180910390fd5b6003600083815260200190815260200160002060050160009054906101000a900473ffffffffffffffffffffffffffffffffffffffff1673ffffffffffffffffffffffffffffffffffffffff163373ffffffffffffffffffffffffffffffffffffffff161415610785576040517f08c379a000000000000000000000000000000000000000000000000000000000815260040180806020018281038252602281526020018061397e6022913960400191505060405180910390fd5b61078e3361340f565b156107e4576040517f08c379a00000000000000000000000000000000000000000000000000000000081526004018080602001828103825260268152602001806138766026913960400191505060405180910390fd5b60006001808111156107f257fe5b6003600085815260200190815260200160002060020160009054906101000a900460ff16600181111561082157fe5b1415610a7c5760006003600085815260200190815260200160002060040160009054906101000a900473ffffffffffffffffffffffffffffffffffffffff16905060036000858152602001908152602001600020600301549150818173ffffffffffffffffffffffffffffffffffffffff166370a08231336040518263ffffffff1660e01b8152600401808273ffffffffffffffffffffffffffffffffffffffff16815260200191505060206040518083038186803b1580156108e357600080fd5b505afa1580156108f7573d6000803e3d6000fd5b505050506040513d602081101561090d57600080fd5b81019080805190602001909291905050501015610975576040517f08c379a00000000000000000000000000000000000000000000000000000000081526004018080602001828103825260298152602001806138cf6029913960400191505060405180910390fd5b8073ffffffffffffffffffffffffffffffffffffffff166323b872dd336003600088815260200190815260200160002060050160009054906101000a900473ffffffffffffffffffffffffffffffffffffffff16856040518463ffffffff1660e01b8152600401808473ffffffffffffffffffffffffffffffffffffffff1681526020018373ffffffffffffffffffffffffffffffffffffffff1681526020018281526020019350505050602060405180830381600087803b158015610a3a57600080fd5b505af1158015610a4e573d6000803e3d6000fd5b505050506040513d6020811015610a6457600080fd5b81019080805190602001909291905050505050610b83565b60036000848152602001908152602001600020600301549050803373ffffffffffffffffffffffffffffffffffffffff16311015610b05576040517f08c379a00000000000000000000000000000000000000000000000000000000081526004018080602001828103825260298152602001806138cf6029913960400191505060405180910390fd5b6003600084815260200190815260200160002060050160009054906101000a900473ffffffffffffffffffffffffffffffffffffffff1673ffffffffffffffffffffffffffffffffffffffff166108fc829081150290604051600060405180830381858888f19350505050158015610b81573d6000803e3d6000fd5b505b60006003600085815260200190815260200160002060000160009054906101000a900473ffffffffffffffffffffffffffffffffffffffff169050600360008581526020019081526020016000206001015491508073ffffffffffffffffffffffffffffffffffffffff1663a9059cbb33846040518363ffffffff1660e01b8152600401808373ffffffffffffffffffffffffffffffffffffffff16815260200182815260200192505050602060405180830381600087803b158015610c4857600080fd5b505af1158015610c5c573d6000803e3d6000fd5b505050506040513d6020811015610c7257600080fd5b810190808051906020019092919050505050610ca560036000868152602001908152602001600020600601546001613422565b60036000868152602001908152602001600020600601819055506000600360008681526020019081526020016000206006015411610d165760016003600086815260200190815260200160002060070160006101000a81548160ff02191690836001811115610d1057fe5b02179055505b610d1e61363a565b8481600001818152505033816020019073ffffffffffffffffffffffffffffffffffffffff16908173ffffffffffffffffffffffffffffffffffffffff1681525050806005600060015481526020019081526020016000206000820151816000015560208201518160010160006101000a81548173ffffffffffffffffffffffffffffffffffffffff021916908373ffffffffffffffffffffffffffffffffffffffff1602179055509050507f6e7310533622549e2045c74edd6d542a602f9becf88194d2558e23006fc30ec16001548633604051808481526020018381526020018273ffffffffffffffffffffffffffffffffffffffff168152602001935050505060405180910390a1610e36600154600161346c565b600181905550610e4585613194565b7f67eae65bb7911aed846f0df6f838b85685b277d43a16a018b1998174c64576db856003600088815260200190815260200160002060000160009054906101000a900473ffffffffffffffffffffffffffffffffffffffff166003600089815260200190815260200160002060010154600360008a815260200190815260200160002060060154600360008b815260200190815260200160002060020160009054906101000a900460ff16600360008c815260200190815260200160002060030154600360008d815260200190815260200160002060040160009054906101000a900473ffffffffffffffffffffffffffffffffffffffff16600360008e815260200190815260200160002060050160009054906101000a900473ffffffffffffffffffffffffffffffffffffffff16600360008f815260200190815260200160002060070160009054906101000a900460ff16604051808a81526020018973ffffffffffffffffffffffffffffffffffffffff168152602001888152602001878152602001866001811115610fd757fe5b81526020018581526020018473ffffffffffffffffffffffffffffffffffffffff1681526020018373ffffffffffffffffffffffffffffffffffffffff16815260200182600181111561102657fe5b8152602001995050505050505050505060405180910390a161104b6001546001613422565b9350505050919050565b6000600460008381526020019081526020016000206000015490503373ffffffffffffffffffffffffffffffffffffffff166003600083815260200190815260200160002060050160009054906101000a900473ffffffffffffffffffffffffffffffffffffffff1673ffffffffffffffffffffffffffffffffffffffff161461112a576040517f08c379a000000000000000000000000000000000000000000000000000000000815260040180806020018281038252602881526020018061384e6028913960400191505060405180910390fd5b60006004600084815260200190815260200160002060020160009054906101000a900473ffffffffffffffffffffffffffffffffffffffff16905060006003600084815260200190815260200160002060050160009054906101000a900473ffffffffffffffffffffffffffffffffffffffff16905060016004600086815260200190815260200160002060040160006101000a81548160ff021916908360048111156111d357fe5b021790555050505050565b3373ffffffffffffffffffffffffffffffffffffffff166003600084815260200190815260200160002060050160009054906101000a900473ffffffffffffffffffffffffffffffffffffffff1673ffffffffffffffffffffffffffffffffffffffff1614611298576040517f08c379a000000000000000000000000000000000000000000000000000000000815260040180806020018281038252603381526020018061389c6033913960400191505060405180910390fd5b8060036000848152602001908152602001600020600601541015611307576040517f08c379a000000000000000000000000000000000000000000000000000000000815260040180806020018281038252604a8152602001806139a0604a913960600191505060405180910390fd5b60006003600084815260200190815260200160002060000160009054906101000a900473ffffffffffffffffffffffffffffffffffffffff1690506000600360008581526020019081526020016000206001015490508173ffffffffffffffffffffffffffffffffffffffff1663a9059cbb3361138484876134f4565b6040518363ffffffff1660e01b8152600401808373ffffffffffffffffffffffffffffffffffffffff16815260200182815260200192505050602060405180830381600087803b1580156113d757600080fd5b505af11580156113eb573d6000803e3d6000fd5b505050506040513d602081101561140157600080fd5b810190808051906020019092919050505050826003600086815260200190815260200160002060060160008282540392505081905550600060036000868152602001908152602001600020600601541161148e5760016003600086815260200190815260200160002060070160006101000a81548160ff0219169083600181111561148857fe5b02179055505b7f67eae65bb7911aed846f0df6f838b85685b277d43a16a018b1998174c64576db846003600087815260200190815260200160002060000160009054906101000a900473ffffffffffffffffffffffffffffffffffffffff1660036000888152602001908152602001600020600101546003600089815260200190815260200160002060060154600360008a815260200190815260200160002060020160009054906101000a900460ff16600360008b815260200190815260200160002060030154600360008c815260200190815260200160002060040160009054906101000a900473ffffffffffffffffffffffffffffffffffffffff16600360008d815260200190815260200160002060050160009054906101000a900473ffffffffffffffffffffffffffffffffffffffff16600360008e815260200190815260200160002060070160009054906101000a900460ff16604051808a81526020018973ffffffffffffffffffffffffffffffffffffffff16815260200188815260200187815260200186600181111561162057fe5b81526020018581526020018473ffffffffffffffffffffffffffffffffffffffff1681526020018373ffffffffffffffffffffffffffffffffffffffff16815260200182600181111561166f57fe5b8152602001995050505050505050505060405180910390a150505050565b6000833373ffffffffffffffffffffffffffffffffffffffff163110156116ff576040517f08c379a000000000000000000000000000000000000000000000000000000000815260040180806020018281038252602f8152602001806139ea602f913960400191505060405180910390fd5b61170761366a565b858160000181815250508481602001818152505083838080601f016020809104026020016040519081016040528093929190818152602001838380828437600081840152601f19601f82011690508083019250505050505050816060018190525060028160800190600481111561177a57fe5b9081600481111561178757fe5b8152505080600460006002548152602001908152602001600020600082015181600001556020820151816001015560408201518160020160006101000a81548173ffffffffffffffffffffffffffffffffffffffff021916908373ffffffffffffffffffffffffffffffffffffffff16021790555060608201518160030190805190602001906118189291906136ba565b5060808201518160040160006101000a81548160ff0219169083600481111561183d57fe5b02179055509050507fbde914517a4f17d675725fdbed2caecedc0f30224ba54e5e0fd5db61661d2767600254878787878660800151604051808781526020018681526020018581526020018060200183600481111561189857fe5b81526020018281038252858582818152602001925080828437600081840152601f19601f82011690508083019250505097505050505050505060405180910390a1600260008154809291906001019190505550600160025403915050949350505050565b60006004600083815260200190815260200160002060000154905060006004600084815260200190815260200160002060020160009054906101000a900473ffffffffffffffffffffffffffffffffffffffff16905060006003600084815260200190815260200160002060050160009054906101000a900473ffffffffffffffffffffffffffffffffffffffff1690508073ffffffffffffffffffffffffffffffffffffffff163373ffffffffffffffffffffffffffffffffffffffff1614806119f257508173ffffffffffffffffffffffffffffffffffffffff163373ffffffffffffffffffffffffffffffffffffffff16145b611a47576040517f08c379a0000000000000000000000000000000000000000000000000000000008152600401808060200182810382526044815260200180613a196044913960600191505060405180910390fd5b8073ffffffffffffffffffffffffffffffffffffffff163373ffffffffffffffffffffffffffffffffffffffff161415611ab85760006004600085815260200190815260200160002060040160006101000a81548160ff02191690836004811115611aae57fe5b0217905550611b26565b8173ffffffffffffffffffffffffffffffffffffffff163373ffffffffffffffffffffffffffffffffffffffff161415611b255760036004600085815260200190815260200160002060040160006101000a81548160ff02191690836004811115611b1f57fe5b02179055505b5b7fbde914517a4f17d675725fdbed2caecedc0f30224ba54e5e0fd5db61661d27678484600460008881526020019081526020016000206001015460046000898152602001908152602001600020600301600460008a815260200190815260200160002060040160009054906101000a900460ff166040518086815260200185815260200184815260200180602001836004811115611bc057fe5b8152602001828103825284818154600181600116156101000203166002900481526020019150805460018160011615610100020316600290048015611c465780601f10611c1b57610100808354040283529160200191611c46565b820191906000526020600020905b815481529060010190602001808311611c2957829003601f168201915b5050965050505050505060405180910390a150505050565b60056020528060005260406000206000915090508060000154908060010160009054906101000a900473ffffffffffffffffffffffffffffffffffffffff16905082565b6000611cad3361340f565b611d1f576040517f08c379a000000000000000000000000000000000000000000000000000000000815260040180806020018281038252601b8152602001807f53656c6c65722063616e6e6f74206265206120636f6e7472616374000000000081525060200191505060405180910390fd5b611d2761373a565b87816000019073ffffffffffffffffffffffffffffffffffffffff16908173ffffffffffffffffffffffffffffffffffffffff168152505086816020018181525050600180811115611d7557fe5b856001811115611d8157fe5b1415611dc05782816080019073ffffffffffffffffffffffffffffffffffffffff16908173ffffffffffffffffffffffffffffffffffffffff16815250505b83816060018181525050338160a0019073ffffffffffffffffffffffffffffffffffffffff16908173ffffffffffffffffffffffffffffffffffffffff168152505060008160e001906001811115611e1457fe5b90816001811115611e2157fe5b8152505080600360008054815260200190815260200160002060008201518160000160006101000a81548173ffffffffffffffffffffffffffffffffffffffff021916908373ffffffffffffffffffffffffffffffffffffffff1602179055506020820151816001015560408201518160020160006101000a81548160ff02191690836001811115611eaf57fe5b02179055506060820151816003015560808201518160040160006101000a81548173ffffffffffffffffffffffffffffffffffffffff021916908373ffffffffffffffffffffffffffffffffffffffff16021790555060a08201518160050160006101000a81548173ffffffffffffffffffffffffffffffffffffffff021916908373ffffffffffffffffffffffffffffffffffffffff16021790555060c0820151816006015560e08201518160070160006101000a81548160ff02191690836001811115611f7a57fe5b02179055509050506000889050868260c00181815250508073ffffffffffffffffffffffffffffffffffffffff166323b872dd3330611fb98c8c6134f4565b6040518463ffffffff1660e01b8152600401808473ffffffffffffffffffffffffffffffffffffffff1681526020018373ffffffffffffffffffffffffffffffffffffffff1681526020018281526020019350505050602060405180830381600087803b15801561202957600080fd5b505af115801561203d573d6000803e3d6000fd5b505050506040513d602081101561205357600080fd5b8101908080519060200190929190505050507f67eae65bb7911aed846f0df6f838b85685b277d43a16a018b1998174c64576db6000548a8a8a8a8a8a338a60e00151604051808a81526020018973ffffffffffffffffffffffffffffffffffffffff1681526020018881526020018781526020018660018111156120d357fe5b81526020018581526020018473ffffffffffffffffffffffffffffffffffffffff1681526020018373ffffffffffffffffffffffffffffffffffffffff16815260200182600181111561212257fe5b8152602001995050505050505050505060405180910390a1612147600054600161346c565b60008190555061215a6000546001613422565b925050509695505050505050565b3373ffffffffffffffffffffffffffffffffffffffff166003600084815260200190815260200160002060050160009054906101000a900473ffffffffffffffffffffffffffffffffffffffff1673ffffffffffffffffffffffffffffffffffffffff1614612222576040517f08c379a000000000000000000000000000000000000000000000000000000000815260040180806020018281038252603281526020018061381c6032913960400191505060405180910390fd5b61224260036000848152602001908152602001600020600601548261346c565b5060006003600084815260200190815260200160002060000160009054906101000a900473ffffffffffffffffffffffffffffffffffffffff1690506000600360008581526020019081526020016000206001015490506122a381846134f4565b8273ffffffffffffffffffffffffffffffffffffffff166370a08231336040518263ffffffff1660e01b8152600401808273ffffffffffffffffffffffffffffffffffffffff16815260200191505060206040518083038186803b15801561230a57600080fd5b505afa15801561231e573d6000803e3d6000fd5b505050506040513d602081101561233457600080fd5b8101908080519060200190929190505050101561239c576040517f08c379a000000000000000000000000000000000000000000000000000000000815260040180806020018281038252602d8152602001806138f8602d913960400191505060405180910390fd5b6001808111156123a857fe5b6003600086815260200190815260200160002060070160009054906101000a900460ff1660018111156123d757fe5b14156124165760006003600086815260200190815260200160002060070160006101000a81548160ff0219169083600181111561241057fe5b02179055505b8173ffffffffffffffffffffffffffffffffffffffff166323b872dd33308685026040518463ffffffff1660e01b8152600401808473ffffffffffffffffffffffffffffffffffffffff1681526020018373ffffffffffffffffffffffffffffffffffffffff1681526020018281526020019350505050602060405180830381600087803b1580156124a757600080fd5b505af11580156124bb573d6000803e3d6000fd5b505050506040513d60208110156124d157600080fd5b8101908080519060200190929190505050507f67eae65bb7911aed846f0df6f838b85685b277d43a16a018b1998174c64576db846003600087815260200190815260200160002060000160009054906101000a900473ffffffffffffffffffffffffffffffffffffffff1660036000888152602001908152602001600020600101546003600089815260200190815260200160002060060154600360008a815260200190815260200160002060020160009054906101000a900460ff16600360008b815260200190815260200160002060030154600360008c815260200190815260200160002060040160009054906101000a900473ffffffffffffffffffffffffffffffffffffffff16600360008d815260200190815260200160002060050160009054906101000a900473ffffffffffffffffffffffffffffffffffffffff16600360008e815260200190815260200160002060070160009054906101000a900460ff16604051808a81526020018973ffffffffffffffffffffffffffffffffffffffff16815260200188815260200187815260200186600181111561267557fe5b81526020018581526020018473ffffffffffffffffffffffffffffffffffffffff1681526020018373ffffffffffffffffffffffffffffffffffffffff1681526020018260018111156126c457fe5b8152602001995050505050505050505060405180910390a150505050565b6000600460008381526020019081526020016000206000015490506001600481111561270a57fe5b6004600084815260200190815260200160002060040160009054906101000a900460ff16600481111561273957fe5b146127ac576040517f08c379a00000000000000000000000000000000000000000000000000000000081526004018080602001828103825260208152602001807f436f756e7465722052657175657374206d75737420626520616363657074656481525060200191505060405180910390fd5b6004600083815260200190815260200160002060020160009054906101000a900473ffffffffffffffffffffffffffffffffffffffff1673ffffffffffffffffffffffffffffffffffffffff163373ffffffffffffffffffffffffffffffffffffffff161461281a57600080fd5b6000806003600084815260200190815260200160002060000160009054906101000a900473ffffffffffffffffffffffffffffffffffffffff169050600360008481526020019081526020016000206001015491508073ffffffffffffffffffffffffffffffffffffffff1663a9059cbb33846040518363ffffffff1660e01b8152600401808373ffffffffffffffffffffffffffffffffffffffff16815260200182815260200192505050602060405180830381600087803b1580156128e057600080fd5b505af11580156128f4573d6000803e3d6000fd5b505050506040513d602081101561290a57600080fd5b81019080805190602001909291905050505061293d60036000858152602001908152602001600020600601546001613422565b600360008581526020019081526020016000206006018190555060006003600085815260200190815260200160002060060154116129ae5760016003600085815260200190815260200160002060070160006101000a81548160ff021916908360018111156129a857fe5b02179055505b6001808111156129ba57fe5b6003600085815260200190815260200160002060020160009054906101000a900460ff1660018111156129e957fe5b1415612d5c5760006003600085815260200190815260200160002060040160009054906101000a900473ffffffffffffffffffffffffffffffffffffffff16905060046000858152602001908152602001600020600101549250828173ffffffffffffffffffffffffffffffffffffffff166370a08231336040518263ffffffff1660e01b8152600401808273ffffffffffffffffffffffffffffffffffffffff16815260200191505060206040518083038186803b158015612aab57600080fd5b505afa158015612abf573d6000803e3d6000fd5b505050506040513d6020811015612ad557600080fd5b81019080805190602001909291905050501015612b3d576040517f08c379a00000000000000000000000000000000000000000000000000000000081526004018080602001828103825260298152602001806138cf6029913960400191505060405180910390fd5b828173ffffffffffffffffffffffffffffffffffffffff1663dd62ed3e33306040518363ffffffff1660e01b8152600401808373ffffffffffffffffffffffffffffffffffffffff1681526020018273ffffffffffffffffffffffffffffffffffffffff1681526020019250505060206040518083038186803b158015612bc357600080fd5b505afa158015612bd7573d6000803e3d6000fd5b505050506040513d6020811015612bed57600080fd5b81019080805190602001909291905050501015612c55576040517f08c379a00000000000000000000000000000000000000000000000000000000081526004018080602001828103825260388152602001806139466038913960400191505060405180910390fd5b8073ffffffffffffffffffffffffffffffffffffffff166323b872dd336003600088815260200190815260200160002060050160009054906101000a900473ffffffffffffffffffffffffffffffffffffffff16866040518463ffffffff1660e01b8152600401808473ffffffffffffffffffffffffffffffffffffffff1681526020018373ffffffffffffffffffffffffffffffffffffffff1681526020018281526020019350505050602060405180830381600087803b158015612d1a57600080fd5b505af1158015612d2e573d6000803e3d6000fd5b505050506040513d6020811015612d4457600080fd5b81019080805190602001909291905050505050612e63565b60046000848152602001908152602001600020600101549150813373ffffffffffffffffffffffffffffffffffffffff16311015612de5576040517f08c379a00000000000000000000000000000000000000000000000000000000081526004018080602001828103825260298152602001806138cf6029913960400191505060405180910390fd5b6003600084815260200190815260200160002060050160009054906101000a900473ffffffffffffffffffffffffffffffffffffffff1673ffffffffffffffffffffffffffffffffffffffff166108fc839081150290604051600060405180830381858888f19350505050158015612e61573d6000803e3d6000fd5b505b7fbde914517a4f17d675725fdbed2caecedc0f30224ba54e5e0fd5db61661d27678484600460008781526020019081526020016000206001015460046000898152602001908152602001600020600301600460008a815260200190815260200160002060040160009054906101000a900460ff166040518086815260200185815260200184815260200180602001836004811115612efd57fe5b8152602001828103825284818154600181600116156101000203166002900481526020019150805460018160011615610100020316600290048015612f835780601f10612f5857610100808354040283529160200191612f83565b820191906000526020600020905b815481529060010190602001808311612f6657829003601f168201915b5050965050505050505060405180910390a17f67eae65bb7911aed846f0df6f838b85685b277d43a16a018b1998174c64576db836003600086815260200190815260200160002060000160009054906101000a900473ffffffffffffffffffffffffffffffffffffffff16600360008781526020019081526020016000206001015460036000888152602001908152602001600020600601546003600089815260200190815260200160002060020160009054906101000a900460ff16600360008a815260200190815260200160002060030154600360008b815260200190815260200160002060040160009054906101000a900473ffffffffffffffffffffffffffffffffffffffff16600360008c815260200190815260200160002060050160009054906101000a900473ffffffffffffffffffffffffffffffffffffffff16600360008d815260200190815260200160002060070160009054906101000a900460ff16604051808a81526020018973ffffffffffffffffffffffffffffffffffffffff16815260200188815260200187815260200186600181111561312757fe5b81526020018581526020018473ffffffffffffffffffffffffffffffffffffffff1681526020018373ffffffffffffffffffffffffffffffffffffffff16815260200182600181111561317657fe5b8152602001995050505050505050505060405180910390a150505050565b60006003600083815260200190815260200160002060050160009054906101000a900473ffffffffffffffffffffffffffffffffffffffff16905060006005600084815260200190815260200160002060010160009054906101000a900473ffffffffffffffffffffffffffffffffffffffff16905060006003600085815260200190815260200160002060000160009054906101000a900473ffffffffffffffffffffffffffffffffffffffff1690506000600360008681526020019081526020016000206001015490508173ffffffffffffffffffffffffffffffffffffffff1663a9059cbb33836040518363ffffffff1660e01b8152600401808373ffffffffffffffffffffffffffffffffffffffff16815260200182815260200192505050602060405180830381600087803b1580156132d157600080fd5b505af11580156132e5573d6000803e3d6000fd5b505050506040513d60208110156132fb57600080fd5b8101908080519060200190929190505050505050505050565b60046020528060005260406000206000915090508060000154908060010154908060020160009054906101000a900473ffffffffffffffffffffffffffffffffffffffff1690806003018054600181600116156101000203166002900480601f0160208091040260200160405190810160405280929190818152602001828054600181600116156101000203166002900480156133f25780601f106133c7576101008083540402835291602001916133f2565b820191906000526020600020905b8154815290600101906020018083116133d557829003601f168201915b5050505050908060040160009054906101000a900460ff16905085565b600080823b905060008111915050919050565b600061346483836040518060400160405280601e81526020017f536166654d6174683a207375627472616374696f6e206f766572666c6f77000081525061357a565b905092915050565b6000808284019050838110156134ea576040517f08c379a000000000000000000000000000000000000000000000000000000000815260040180806020018281038252601b8152602001807f536166654d6174683a206164646974696f6e206f766572666c6f77000000000081525060200191505060405180910390fd5b8091505092915050565b6000808314156135075760009050613574565b600082840290508284828161351857fe5b041461356f576040517f08c379a00000000000000000000000000000000000000000000000000000000081526004018080602001828103825260218152602001806139256021913960400191505060405180910390fd5b809150505b92915050565b6000838311158290613627576040517f08c379a00000000000000000000000000000000000000000000000000000000081526004018080602001828103825283818151815260200191508051906020019080838360005b838110156135ec5780820151818401526020810190506135d1565b50505050905090810190601f1680156136195780820380516001836020036101000a031916815260200191505b509250505060405180910390fd5b5060008385039050809150509392505050565b604051806040016040528060008152602001600073ffffffffffffffffffffffffffffffffffffffff1681525090565b6040518060a001604052806000815260200160008152602001600073ffffffffffffffffffffffffffffffffffffffff16815260200160608152602001600060048111156136b457fe5b81525090565b828054600181600116156101000203166002900490600052602060002090601f016020900481019282601f106136fb57805160ff1916838001178555613729565b82800160010185558215613729579182015b8281111561372857825182559160200191906001019061370d565b5b50905061373691906137d7565b5090565b604051806101000160405280600073ffffffffffffffffffffffffffffffffffffffff168152602001600081526020016000600181111561377757fe5b815260200160008152602001600073ffffffffffffffffffffffffffffffffffffffff168152602001600073ffffffffffffffffffffffffffffffffffffffff16815260200160008152602001600060018111156137d157fe5b81525090565b5b808211156137f05760008160009055506001016137d8565b509056fe546869732053656c6c2052657175657374206973206e6f206c6f6e67657220666f722073616c654f6e6c792053656c6c6572206f662074686573652072657175657374732063616e206465706f7369742052657175657374734f6e6c792053656c6c65722063616e20416363657074206120436f756e74657220526571756573744f666665722063616e6e6f74206265206163636570746564206279206120636f6e74726163744f6e6c792053656c6c6572206f662074686573652072657175657374732063616e207769746864726177205265717565737473596f7520646f6e742068617665207468652066756e647320746f20627579207468697320746f6b656e53656c6c6572206d7573742068617665207468652066756e6473206265696e672070757420666f722073616c65536166654d6174683a206d756c7469706c69636174696f6e206f766572666c6f774275796572206e6565647320746f20617070726f766520726571756972656420746f6b656e7320746f20636f6e747261637420666972737453656c6c65722063616e6e6f742041636365707420686973206f776e206f6666657253656c6c6572206d757374206861766520656e6f756768207265717565737473206465706f736974656420746f2077697468647261772074686520737065636966696320616d6f756e74596f7520646f206e6f742068617665207468652066756e647320746f206d616b65207375636820616e206f666665724f6e6c792053656c6c6572206f72204f776e6572206f662074686520436f756e74657220726571756573742063616e2063616e63656c20636f7574657252657175657374a2646970667358221220409462602a1c1ad718b8834adabc89c50389eee42bc23538f17a6bd74088535664736f6c634300060c0033",
  "compiler": {
    "name": "solc",
    "version": "0.6.12+commit.27d51765.Emscripten.clang",
    "optimizer": {
      "enabled": false,
      "runs": 200
    },
    "evmVersion": "petersburg"
  }
}