{
  "fileName": "Token_Exchange.sol",
  "contractName": "Token_exchange",
  "source": "pragma solidity ^0.6.0;\n\nimport \"./IERC20.sol\";\nimport \"./Address.sol\";\nimport \"./SafeMath.sol\";\n\ncontract Token_exchange{\n\n     uint256 sellid_counter=0;\n     uint256 buyid_counter=0;\n     uint256 negotiate_counter=0;\n\n    enum askingValueForm{\n        ETHER,\n        TOKEN\n    }\n\n\n    enum requestStatus{\n        FORSALE,\n        CLOSED\n    }\n\n    enum counterRequestStatus{\n        REJECTED,\n        ACCEPTED,\n        PENDING,\n        CANCELED,\n        CLOSED\n    }\n\n    struct sellRequest{\n        address tokenToSell;\n        uint256 amount;\n        askingValueForm form;\n        uint256 askingValue;\n        address tokenToExchange;\n        address payable seller;\n        uint256 quantity;\n        requestStatus status;\n    }\n\n    struct buyRequest{\n        uint256 sellRequestID;\n        address buyer;\n        \n    }\n\n    struct counterRequest{\n        uint256 sellRequestID;\n        uint256 askingValue;\n        address payable buyer;\n        string comment;\n        counterRequestStatus status;\n    } \n\n    mapping(uint256=>sellRequest) public sellRequests;\n    mapping(uint256=>counterRequest) public counterRequests;\n    mapping(uint256=>buyRequest) public acceptRequests;\n\n\n    function registerRequest(address _tokenToSell , uint256 _amount ,uint256 _quantity ,askingValueForm _form, uint256 _askingValue , address _tokenToExchange) external returns(uint256 id){\n        require(!Address.isContract(msg.sender),\"Seller cannot be a contract\");\n        sellRequest memory request;\n        request.tokenToSell=_tokenToSell;\n        request.amount=_amount;\n  \n        request.tokenToExchange=_tokenToExchange; \n        \n\n        request.askingValue=SafeMath.mul(_askingValue,1000000000000000000);\n        request.seller=msg.sender;\n        request.status=requestStatus.FORSALE;\n        request.quantity=_quantity;\n        sellRequests[sellid_counter]=request;\n        IERC20 tokenAddress = IERC20(_tokenToSell);\n        \n        tokenAddress.transferFrom(msg.sender,address(this),(SafeMath.mul(_amount,_quantity)));\n\n        emit sellRequestAltered(sellid_counter,_tokenToSell , _amount,_quantity , _form, _askingValue , _tokenToExchange , msg.sender , request.status);\n        sellid_counter=SafeMath.add(sellid_counter,1);\n\n        return (SafeMath.sub(sellid_counter,1));\n    }\n\n\n    function registerRequest(address _tokenToSell , uint256 _amount ,uint256 _quantity ,askingValueForm _form, uint256 _askingValue) external returns(uint256 id){\n        require(Address.isContract(msg.sender)==false,\"Seller cannot be a contract\");\n        sellRequest memory request;\n        request.tokenToSell=_tokenToSell;\n        request.amount=_amount;\n\n\n        request.askingValue=SafeMath.mul(_askingValue,1000000000000000000);\n        request.seller=msg.sender;\n        request.status=requestStatus.FORSALE;\n        request.quantity=_quantity;\n        sellRequests[sellid_counter]=request;\n        \n        IERC20 tokenAddress = IERC20(_tokenToSell);\n        \n        tokenAddress.transferFrom(msg.sender,address(this),(SafeMath.mul(_amount,_quantity)));\n\n        emit sellRequestAltered(sellid_counter,_tokenToSell , _amount,_quantity , _form, _askingValue , address(0x0) , msg.sender , request.status);\n        sellid_counter=SafeMath.add(sellid_counter,1);\n\n        return (SafeMath.sub(sellid_counter,1));\n    }\n\n    function recieveAssets(uint256 _sellid) public {\n        address seller=sellRequests[_sellid].seller;\n        IERC20 tokenToSell=IERC20(sellRequests[_sellid].tokenToSell);\n        uint256 amount=sellRequests[_sellid].amount;\n        tokenToSell.transfer(msg.sender,amount);\n\n    }\n\n    function buySellRequest(uint256 _sellid ) payable external returns (uint256){\n        require(sellRequests[_sellid].status==requestStatus.FORSALE,\"This Sell Request is no longer for sale\");\n        require(msg.sender!=sellRequests[_sellid].seller,\"Seller cannot Accept his own offer\");\n        require(!Address.isContract(msg.sender),\"Offer cannot be accepted by a contract\");\n        \n        uint256 amount;\n        if(sellRequests[_sellid].form==askingValueForm.TOKEN){\n            \n            IERC20 tokenAddress=IERC20(sellRequests[_sellid].tokenToExchange);\n            amount= sellRequests[_sellid].askingValue;\n            require(tokenAddress.balanceOf(msg.sender)>=amount,\"You dont have the funds to buy this token\");\n            \n            tokenAddress.transferFrom(msg.sender,sellRequests[_sellid].seller,amount);\n            }\n        else{\n            amount= sellRequests[_sellid].askingValue;\n            require(msg.value==amount,\"You dont have the funds to buy this token\");\n            sellRequests[_sellid].seller.call{value: msg.value}(\"\");\n            }\n        \n\n        sellRequests[_sellid].quantity=SafeMath.sub(sellRequests[_sellid].quantity,1);\n        if(sellRequests[_sellid].quantity<=0){\n            sellRequests[_sellid].status=requestStatus.CLOSED;\n        }\n        buyRequest memory request;\n        request.sellRequestID=_sellid;\n        request.buyer=msg.sender;\n        \n\n        acceptRequests[buyid_counter]=request;\n        emit acceptRequestAltered(buyid_counter,_sellid , msg.sender);\n        buyid_counter=SafeMath.add(buyid_counter,1);\n\n        recieveAssets(_sellid);\n\n\n        \n        emit sellRequestAltered(_sellid,sellRequests[_sellid].tokenToSell , sellRequests[_sellid].amount,sellRequests[_sellid].quantity, sellRequests[_sellid].form, sellRequests[_sellid].askingValue , sellRequests[_sellid].tokenToExchange ,sellRequests[_sellid].seller , sellRequests[_sellid].status);\n        \n        return (SafeMath.sub(buyid_counter,1));\n\n\n    }\n\n    \n\n\n\n\n\n\n    function negotiateRequest(uint256 _sellid , uint256 _askingValue , string calldata _comment ) external returns(uint256) {\n        require(msg.sender.balance>=_askingValue,\"You do not have the funds to make such an offer\");\n        counterRequest memory request;\n        request.sellRequestID=_sellid;\n        request.buyer=msg.sender;\n        request.askingValue=_askingValue;\n        request.comment=_comment;\n        request.status=counterRequestStatus.PENDING;\n\n        counterRequests[negotiate_counter]=request;\n        emit counterRequestAltered(negotiate_counter,_sellid, _askingValue  , _comment , request.status );\n        negotiate_counter++;\n        return (negotiate_counter-1);\n    }\n\n    function acceptCounterRequest(uint256 _id) external {\n        uint256 sell_id = counterRequests[_id].sellRequestID;\n        require(sellRequests[sell_id].seller==msg.sender,\"Only Seller can Accept a Counter Request\");\n        address buyer=counterRequests[_id].buyer;\n        address seller= sellRequests[sell_id].seller;\n  \n        counterRequests[_id].status=counterRequestStatus.ACCEPTED;\n        }\n\n    function buyCounterRequest(uint256 _id) external payable{\n        uint256 _sellid = counterRequests[_id].sellRequestID;\n        require(counterRequests[_id].status==counterRequestStatus.ACCEPTED,\"Counter Request must be accepted\");\n        \n        require(msg.sender==counterRequests[_id].buyer);\n        \n        uint256 amount;\n        IERC20 tokenToSell=IERC20(sellRequests[_sellid].tokenToSell);\n        amount=sellRequests[_sellid].amount;\n        tokenToSell.transfer(msg.sender,amount);\n\n        sellRequests[_sellid].quantity=SafeMath.sub(sellRequests[_sellid].quantity,1);\n        if(sellRequests[_sellid].quantity<=0){\n            sellRequests[_sellid].status=requestStatus.CLOSED;\n        }\n\n        \n        if(sellRequests[_sellid].form==askingValueForm.TOKEN){\n            \n            IERC20 tokenAddress=IERC20(sellRequests[_sellid].tokenToExchange);\n            amount= counterRequests[_sellid].askingValue;\n            require(tokenAddress.balanceOf(msg.sender)>=amount,\"You dont have the funds to buy this token\");\n            require(tokenAddress.allowance(msg.sender,address(this))>=amount,\"Buyer needs to approve required tokens to contract first\");\n            tokenAddress.transferFrom(msg.sender,sellRequests[_sellid].seller,amount);\n            }\n        else{\n            amount= counterRequests[_sellid].askingValue;\n            require(msg.value>=amount,\"You dont have the funds to buy this token\");\n            sellRequests[_sellid].seller.call{value: msg.value}(\"\");\n            }\n    \n\n        // sellRequests[sell_id].quantity-=1;\n        // if(sellRequests[sell_id].quantity<=0){\n        //     sellRequests[sell_id].status=requestStatus.CLOSED;\n        // }\n\n        emit counterRequestAltered(_id,_sellid, counterRequests[_sellid].askingValue  , counterRequests[_id].comment , counterRequests[_id].status );\n        emit sellRequestAltered(_sellid,sellRequests[_sellid].tokenToSell , sellRequests[_sellid].amount ,sellRequests[_sellid].quantity, sellRequests[_sellid].form, sellRequests[_sellid].askingValue , sellRequests[_sellid].tokenToExchange ,sellRequests[_sellid].seller , sellRequests[_sellid].status);\n    }\n\n\n    function cancelCounterRequest(uint256 _id) external {\n        uint256 sell_id = counterRequests[_id].sellRequestID;\n        address buyer=counterRequests[_id].buyer;\n        address seller= sellRequests[sell_id].seller;\n        require(msg.sender==seller || msg.sender==buyer,\"Only Seller or Owner of the Counter request can cancel couterRequest\");\n\n\n\n        if(msg.sender==seller){\n            counterRequests[sell_id].status=counterRequestStatus.REJECTED;\n        }\n        else if(msg.sender==buyer){\n            counterRequests[sell_id].status=counterRequestStatus.CANCELED;\n        }\n\n         emit counterRequestAltered(_id,sell_id, counterRequests[_id].askingValue  , counterRequests[_id].comment , counterRequests[_id].status );\n    }\n\n    function depositRequests(uint256 sell_id , uint256 quantity) external{\n        require(sellRequests[sell_id].seller==msg.sender,\"Only Seller of these requests can deposit Requests\");\n        SafeMath.add(sellRequests[sell_id].quantity, quantity);\n        IERC20 tokenToSell = IERC20(sellRequests[sell_id].tokenToSell);\n        uint256 amount=sellRequests[sell_id].amount;\n        require(tokenToSell.balanceOf(msg.sender)>=SafeMath.mul(amount,quantity),\"Seller must have the funds being put for sale\");\n        if(sellRequests[sell_id].status==requestStatus.CLOSED){\n            sellRequests[sell_id].status=requestStatus.FORSALE;\n        }\n\n\n        tokenToSell.transferFrom(msg.sender,address(this),amount*quantity);\n        emit sellRequestAltered(sell_id,sellRequests[sell_id].tokenToSell , sellRequests[sell_id].amount,sellRequests[sell_id].quantity, sellRequests[sell_id].form, sellRequests[sell_id].askingValue , sellRequests[sell_id].tokenToExchange ,sellRequests[sell_id].seller , sellRequests[sell_id].status);\n\n    }\n\n    function withdrawRequests(uint256 sell_id , uint256 quantity) external{\n        require(sellRequests[sell_id].seller==msg.sender,\"Only Seller of these requests can withdraw Requests\");\n        require(sellRequests[sell_id].quantity>=quantity,\"Seller must have enough requests deposited to withdraw the specific amount\");\n\n        IERC20 tokenToSell=IERC20(sellRequests[sell_id].tokenToSell);\n        uint256 amount= sellRequests[sell_id].amount;\n\n        tokenToSell.transfer(msg.sender,SafeMath.mul(amount,quantity));\n        sellRequests[sell_id].quantity-=quantity;\n\n        if(sellRequests[sell_id].quantity<=0){\n            sellRequests[sell_id].status=requestStatus.CLOSED;\n        }\n        emit sellRequestAltered(sell_id,sellRequests[sell_id].tokenToSell , sellRequests[sell_id].amount ,sellRequests[sell_id].quantity, sellRequests[sell_id].form, sellRequests[sell_id].askingValue , sellRequests[sell_id].tokenToExchange ,sellRequests[sell_id].seller , sellRequests[sell_id].status);\n    }\n\n\n    \n\n    \n\n\n    \n    event sellRequestAltered(uint256 _id,address _tokenToSell , uint256 _amount,uint256 quantity , askingValueForm _form, uint256 _askingValue , address _tokenToExchange , address _seller , requestStatus _status);\n\n    event acceptRequestAltered(uint256 _id ,uint256 sell_id, address _buyer);\n\n    event counterRequestAltered(uint256 id , uint256 sell_id, uint256 _askingValue  , string _comment , counterRequestStatus _status);\n}",
  "sourcePath": "contracts/Token_Exchange.sol",
  "abi": [
    {
      "anonymous": false,
      "inputs": [
        {
          "indexed": false,
          "internalType": "uint256",
          "name": "_id",
          "type": "uint256"
        },
        {
          "indexed": false,
          "internalType": "uint256",
          "name": "sell_id",
          "type": "uint256"
        },
        {
          "indexed": false,
          "internalType": "address",
          "name": "_buyer",
          "type": "address"
        }
      ],
      "name": "acceptRequestAltered",
      "type": "event"
    },
    {
      "anonymous": false,
      "inputs": [
        {
          "indexed": false,
          "internalType": "uint256",
          "name": "id",
          "type": "uint256"
        },
        {
          "indexed": false,
          "internalType": "uint256",
          "name": "sell_id",
          "type": "uint256"
        },
        {
          "indexed": false,
          "internalType": "uint256",
          "name": "_askingValue",
          "type": "uint256"
        },
        {
          "indexed": false,
          "internalType": "string",
          "name": "_comment",
          "type": "string"
        },
        {
          "indexed": false,
          "internalType": "enum Token_exchange.counterRequestStatus",
          "name": "_status",
          "type": "uint8"
        }
      ],
      "name": "counterRequestAltered",
      "type": "event"
    },
    {
      "anonymous": false,
      "inputs": [
        {
          "indexed": false,
          "internalType": "uint256",
          "name": "_id",
          "type": "uint256"
        },
        {
          "indexed": false,
          "internalType": "address",
          "name": "_tokenToSell",
          "type": "address"
        },
        {
          "indexed": false,
          "internalType": "uint256",
          "name": "_amount",
          "type": "uint256"
        },
        {
          "indexed": false,
          "internalType": "uint256",
          "name": "quantity",
          "type": "uint256"
        },
        {
          "indexed": false,
          "internalType": "enum Token_exchange.askingValueForm",
          "name": "_form",
          "type": "uint8"
        },
        {
          "indexed": false,
          "internalType": "uint256",
          "name": "_askingValue",
          "type": "uint256"
        },
        {
          "indexed": false,
          "internalType": "address",
          "name": "_tokenToExchange",
          "type": "address"
        },
        {
          "indexed": false,
          "internalType": "address",
          "name": "_seller",
          "type": "address"
        },
        {
          "indexed": false,
          "internalType": "enum Token_exchange.requestStatus",
          "name": "_status",
          "type": "uint8"
        }
      ],
      "name": "sellRequestAltered",
      "type": "event"
    },
    {
      "inputs": [
        {
          "internalType": "uint256",
          "name": "_id",
          "type": "uint256"
        }
      ],
      "name": "acceptCounterRequest",
      "outputs": [],
      "stateMutability": "nonpayable",
      "type": "function"
    },
    {
      "inputs": [
        {
          "internalType": "uint256",
          "name": "",
          "type": "uint256"
        }
      ],
      "name": "acceptRequests",
      "outputs": [
        {
          "internalType": "uint256",
          "name": "sellRequestID",
          "type": "uint256"
        },
        {
          "internalType": "address",
          "name": "buyer",
          "type": "address"
        }
      ],
      "stateMutability": "view",
      "type": "function"
    },
    {
      "inputs": [
        {
          "internalType": "uint256",
          "name": "_id",
          "type": "uint256"
        }
      ],
      "name": "buyCounterRequest",
      "outputs": [],
      "stateMutability": "payable",
      "type": "function"
    },
    {
      "inputs": [
        {
          "internalType": "uint256",
          "name": "_sellid",
          "type": "uint256"
        }
      ],
      "name": "buySellRequest",
      "outputs": [
        {
          "internalType": "uint256",
          "name": "",
          "type": "uint256"
        }
      ],
      "stateMutability": "payable",
      "type": "function"
    },
    {
      "inputs": [
        {
          "internalType": "uint256",
          "name": "_id",
          "type": "uint256"
        }
      ],
      "name": "cancelCounterRequest",
      "outputs": [],
      "stateMutability": "nonpayable",
      "type": "function"
    },
    {
      "inputs": [
        {
          "internalType": "uint256",
          "name": "",
          "type": "uint256"
        }
      ],
      "name": "counterRequests",
      "outputs": [
        {
          "internalType": "uint256",
          "name": "sellRequestID",
          "type": "uint256"
        },
        {
          "internalType": "uint256",
          "name": "askingValue",
          "type": "uint256"
        },
        {
          "internalType": "address payable",
          "name": "buyer",
          "type": "address"
        },
        {
          "internalType": "string",
          "name": "comment",
          "type": "string"
        },
        {
          "internalType": "enum Token_exchange.counterRequestStatus",
          "name": "status",
          "type": "uint8"
        }
      ],
      "stateMutability": "view",
      "type": "function"
    },
    {
      "inputs": [
        {
          "internalType": "uint256",
          "name": "sell_id",
          "type": "uint256"
        },
        {
          "internalType": "uint256",
          "name": "quantity",
          "type": "uint256"
        }
      ],
      "name": "depositRequests",
      "outputs": [],
      "stateMutability": "nonpayable",
      "type": "function"
    },
    {
      "inputs": [
        {
          "internalType": "uint256",
          "name": "_sellid",
          "type": "uint256"
        },
        {
          "internalType": "uint256",
          "name": "_askingValue",
          "type": "uint256"
        },
        {
          "internalType": "string",
          "name": "_comment",
          "type": "string"
        }
      ],
      "name": "negotiateRequest",
      "outputs": [
        {
          "internalType": "uint256",
          "name": "",
          "type": "uint256"
        }
      ],
      "stateMutability": "nonpayable",
      "type": "function"
    },
    {
      "inputs": [
        {
          "internalType": "uint256",
          "name": "_sellid",
          "type": "uint256"
        }
      ],
      "name": "recieveAssets",
      "outputs": [],
      "stateMutability": "nonpayable",
      "type": "function"
    },
    {
      "inputs": [
        {
          "internalType": "address",
          "name": "_tokenToSell",
          "type": "address"
        },
        {
          "internalType": "uint256",
          "name": "_amount",
          "type": "uint256"
        },
        {
          "internalType": "uint256",
          "name": "_quantity",
          "type": "uint256"
        },
        {
          "internalType": "enum Token_exchange.askingValueForm",
          "name": "_form",
          "type": "uint8"
        },
        {
          "internalType": "uint256",
          "name": "_askingValue",
          "type": "uint256"
        },
        {
          "internalType": "address",
          "name": "_tokenToExchange",
          "type": "address"
        }
      ],
      "name": "registerRequest",
      "outputs": [
        {
          "internalType": "uint256",
          "name": "id",
          "type": "uint256"
        }
      ],
      "stateMutability": "nonpayable",
      "type": "function"
    },
    {
      "inputs": [
        {
          "internalType": "address",
          "name": "_tokenToSell",
          "type": "address"
        },
        {
          "internalType": "uint256",
          "name": "_amount",
          "type": "uint256"
        },
        {
          "internalType": "uint256",
          "name": "_quantity",
          "type": "uint256"
        },
        {
          "internalType": "enum Token_exchange.askingValueForm",
          "name": "_form",
          "type": "uint8"
        },
        {
          "internalType": "uint256",
          "name": "_askingValue",
          "type": "uint256"
        }
      ],
      "name": "registerRequest",
      "outputs": [
        {
          "internalType": "uint256",
          "name": "id",
          "type": "uint256"
        }
      ],
      "stateMutability": "nonpayable",
      "type": "function"
    },
    {
      "inputs": [
        {
          "internalType": "uint256",
          "name": "",
          "type": "uint256"
        }
      ],
      "name": "sellRequests",
      "outputs": [
        {
          "internalType": "address",
          "name": "tokenToSell",
          "type": "address"
        },
        {
          "internalType": "uint256",
          "name": "amount",
          "type": "uint256"
        },
        {
          "internalType": "enum Token_exchange.askingValueForm",
          "name": "form",
          "type": "uint8"
        },
        {
          "internalType": "uint256",
          "name": "askingValue",
          "type": "uint256"
        },
        {
          "internalType": "address",
          "name": "tokenToExchange",
          "type": "address"
        },
        {
          "internalType": "address payable",
          "name": "seller",
          "type": "address"
        },
        {
          "internalType": "uint256",
          "name": "quantity",
          "type": "uint256"
        },
        {
          "internalType": "enum Token_exchange.requestStatus",
          "name": "status",
          "type": "uint8"
        }
      ],
      "stateMutability": "view",
      "type": "function"
    },
    {
      "inputs": [
        {
          "internalType": "uint256",
          "name": "sell_id",
          "type": "uint256"
        },
        {
          "internalType": "uint256",
          "name": "quantity",
          "type": "uint256"
        }
      ],
      "name": "withdrawRequests",
      "outputs": [],
      "stateMutability": "nonpayable",
      "type": "function"
    }
  ],
  "bytecode": "0x6080604052600080556000600155600060025534801561001e57600080fd5b50613f348061002e6000396000f3fe6080604052600436106100c25760003560e01c806381c54f551161007f578063b106518411610059578063b1065184146104ab578063bc4d2c18146104d9578063cd70f37a14610514578063d26f9c1114610605576100c2565b806381c54f551461034a57806396be0cc6146103b6578063ac89a52714610466576100c2565b80631a5230bb146100c75780632597b6421461019f5780633a4a5462146101e15780634ce2798c1461021c57806363fa767314610261578063739b2fb21461030f575b600080fd5b3480156100d357600080fd5b50610100600480360360208110156100ea57600080fd5b8101908080359060200190929190505050610695565b604051808973ffffffffffffffffffffffffffffffffffffffff16815260200188815260200187600181111561013257fe5b81526020018681526020018573ffffffffffffffffffffffffffffffffffffffff1681526020018473ffffffffffffffffffffffffffffffffffffffff16815260200183815260200182600181111561018757fe5b81526020019850505050505050505060405180910390f35b6101cb600480360360208110156101b557600080fd5b8101908080359060200190929190505050610757565b6040518082815260200191505060405180910390f35b3480156101ed57600080fd5b5061021a6004803603602081101561020457600080fd5b810190808035906020019092919050505061107a565b005b34801561022857600080fd5b5061025f6004803603604081101561023f57600080fd5b810190808035906020019092919080359060200190929190505050611203565b005b34801561026d57600080fd5b506102f96004803603606081101561028457600080fd5b810190808035906020019092919080359060200190929190803590602001906401000000008111156102b557600080fd5b8201836020820111156102c757600080fd5b803590602001918460018302840111640100000000831117156102e957600080fd5b90919293919293905050506116b2565b6040518082815260200191505060405180910390f35b34801561031b57600080fd5b506103486004803603602081101561033257600080fd5b8101908080359060200190929190505050611959565b005b34801561035657600080fd5b506103836004803603602081101561036d57600080fd5b8101908080359060200190929190505050611cbb565b604051808381526020018273ffffffffffffffffffffffffffffffffffffffff1681526020019250505060405180910390f35b3480156103c257600080fd5b50610450600480360360c08110156103d957600080fd5b81019080803573ffffffffffffffffffffffffffffffffffffffff1690602001909291908035906020019092919080359060200190929190803560ff16906020019092919080359060200190929190803573ffffffffffffffffffffffffffffffffffffffff169060200190929190505050611cff565b6040518082815260200191505060405180910390f35b34801561047257600080fd5b506104a96004803603604081101561048957600080fd5b8101908080359060200190929190803590602001909291905050506121b8565b005b6104d7600480360360208110156104c157600080fd5b8101908080359060200190929190505050612732565b005b3480156104e557600080fd5b50610512600480360360208110156104fc57600080fd5b81019080803590602001909291905050506131ec565b005b34801561052057600080fd5b5061054d6004803603602081101561053757600080fd5b8101908080359060200190929190505050613330565b604051808681526020018581526020018473ffffffffffffffffffffffffffffffffffffffff1681526020018060200183600481111561058957fe5b8152602001828103825284818151815260200191508051906020019080838360005b838110156105c65780820151818401526020810190506105ab565b50505050905090810190601f1680156105f35780820380516001836020036101000a031916815260200191505b50965050505050505060405180910390f35b34801561061157600080fd5b5061067f600480360360a081101561062857600080fd5b81019080803573ffffffffffffffffffffffffffffffffffffffff1690602001909291908035906020019092919080359060200190929190803560ff1690602001909291908035906020019092919050505061342b565b6040518082815260200191505060405180910390f35b60036020528060005260406000206000915090508060000160009054906101000a900473ffffffffffffffffffffffffffffffffffffffff16908060010154908060020160009054906101000a900460ff16908060030154908060040160009054906101000a900473ffffffffffffffffffffffffffffffffffffffff16908060050160009054906101000a900473ffffffffffffffffffffffffffffffffffffffff16908060060154908060070160009054906101000a900460ff16905088565b600080600181111561076557fe5b6003600084815260200190815260200160002060070160009054906101000a900460ff16600181111561079457fe5b146107ea576040517f08c379a0000000000000000000000000000000000000000000000000000000008152600401808060200182810382526027815260200180613c976027913960400191505060405180910390fd5b6003600083815260200190815260200160002060050160009054906101000a900473ffffffffffffffffffffffffffffffffffffffff1673ffffffffffffffffffffffffffffffffffffffff163373ffffffffffffffffffffffffffffffffffffffff1614156108a5576040517f08c379a0000000000000000000000000000000000000000000000000000000008152600401808060200182810382526022815260200180613e206022913960400191505060405180910390fd5b6108ae336138b1565b15610904576040517f08c379a0000000000000000000000000000000000000000000000000000000008152600401808060200182810382526026815260200180613d186026913960400191505060405180910390fd5b600060018081111561091257fe5b6003600085815260200190815260200160002060020160009054906101000a900460ff16600181111561094157fe5b1415610b9c5760006003600085815260200190815260200160002060040160009054906101000a900473ffffffffffffffffffffffffffffffffffffffff16905060036000858152602001908152602001600020600301549150818173ffffffffffffffffffffffffffffffffffffffff166370a08231336040518263ffffffff1660e01b8152600401808273ffffffffffffffffffffffffffffffffffffffff16815260200191505060206040518083038186803b158015610a0357600080fd5b505afa158015610a17573d6000803e3d6000fd5b505050506040513d6020811015610a2d57600080fd5b81019080805190602001909291905050501015610a95576040517f08c379a0000000000000000000000000000000000000000000000000000000008152600401808060200182810382526029815260200180613d716029913960400191505060405180910390fd5b8073ffffffffffffffffffffffffffffffffffffffff166323b872dd336003600088815260200190815260200160002060050160009054906101000a900473ffffffffffffffffffffffffffffffffffffffff16856040518463ffffffff1660e01b8152600401808473ffffffffffffffffffffffffffffffffffffffff1681526020018373ffffffffffffffffffffffffffffffffffffffff1681526020018281526020019350505050602060405180830381600087803b158015610b5a57600080fd5b505af1158015610b6e573d6000803e3d6000fd5b505050506040513d6020811015610b8457600080fd5b81019080805190602001909291905050505050610caa565b60036000848152602001908152602001600020600301549050803414610c0d576040517f08c379a0000000000000000000000000000000000000000000000000000000008152600401808060200182810382526029815260200180613d716029913960400191505060405180910390fd5b6003600084815260200190815260200160002060050160009054906101000a900473ffffffffffffffffffffffffffffffffffffffff1673ffffffffffffffffffffffffffffffffffffffff163460405180600001905060006040518083038185875af1925050503d8060008114610ca1576040519150601f19603f3d011682016040523d82523d6000602084013e610ca6565b606091505b5050505b610ccb600360008581526020019081526020016000206006015460016138c4565b60036000858152602001908152602001600020600601819055506000600360008581526020019081526020016000206006015411610d3c5760016003600085815260200190815260200160002060070160006101000a81548160ff02191690836001811115610d3657fe5b02179055505b610d44613adc565b8381600001818152505033816020019073ffffffffffffffffffffffffffffffffffffffff16908173ffffffffffffffffffffffffffffffffffffffff1681525050806005600060015481526020019081526020016000206000820151816000015560208201518160010160006101000a81548173ffffffffffffffffffffffffffffffffffffffff021916908373ffffffffffffffffffffffffffffffffffffffff1602179055509050507f6e7310533622549e2045c74edd6d542a602f9becf88194d2558e23006fc30ec16001548533604051808481526020018381526020018273ffffffffffffffffffffffffffffffffffffffff168152602001935050505060405180910390a1610e5c600154600161390e565b600181905550610e6b846131ec565b7f67eae65bb7911aed846f0df6f838b85685b277d43a16a018b1998174c64576db846003600087815260200190815260200160002060000160009054906101000a900473ffffffffffffffffffffffffffffffffffffffff1660036000888152602001908152602001600020600101546003600089815260200190815260200160002060060154600360008a815260200190815260200160002060020160009054906101000a900460ff16600360008b815260200190815260200160002060030154600360008c815260200190815260200160002060040160009054906101000a900473ffffffffffffffffffffffffffffffffffffffff16600360008d815260200190815260200160002060050160009054906101000a900473ffffffffffffffffffffffffffffffffffffffff16600360008e815260200190815260200160002060070160009054906101000a900460ff16604051808a81526020018973ffffffffffffffffffffffffffffffffffffffff168152602001888152602001878152602001866001811115610ffd57fe5b81526020018581526020018473ffffffffffffffffffffffffffffffffffffffff1681526020018373ffffffffffffffffffffffffffffffffffffffff16815260200182600181111561104c57fe5b8152602001995050505050505050505060405180910390a161107160015460016138c4565b92505050919050565b6000600460008381526020019081526020016000206000015490503373ffffffffffffffffffffffffffffffffffffffff166003600083815260200190815260200160002060050160009054906101000a900473ffffffffffffffffffffffffffffffffffffffff1673ffffffffffffffffffffffffffffffffffffffff161461114f576040517f08c379a0000000000000000000000000000000000000000000000000000000008152600401808060200182810382526028815260200180613cf06028913960400191505060405180910390fd5b60006004600084815260200190815260200160002060020160009054906101000a900473ffffffffffffffffffffffffffffffffffffffff16905060006003600084815260200190815260200160002060050160009054906101000a900473ffffffffffffffffffffffffffffffffffffffff16905060016004600086815260200190815260200160002060040160006101000a81548160ff021916908360048111156111f857fe5b021790555050505050565b3373ffffffffffffffffffffffffffffffffffffffff166003600084815260200190815260200160002060050160009054906101000a900473ffffffffffffffffffffffffffffffffffffffff1673ffffffffffffffffffffffffffffffffffffffff16146112bd576040517f08c379a0000000000000000000000000000000000000000000000000000000008152600401808060200182810382526033815260200180613d3e6033913960400191505060405180910390fd5b806003600084815260200190815260200160002060060154101561132c576040517f08c379a000000000000000000000000000000000000000000000000000000000815260040180806020018281038252604a815260200180613e42604a913960600191505060405180910390fd5b60006003600084815260200190815260200160002060000160009054906101000a900473ffffffffffffffffffffffffffffffffffffffff1690506000600360008581526020019081526020016000206001015490508173ffffffffffffffffffffffffffffffffffffffff1663a9059cbb336113a98487613996565b6040518363ffffffff1660e01b8152600401808373ffffffffffffffffffffffffffffffffffffffff16815260200182815260200192505050602060405180830381600087803b1580156113fc57600080fd5b505af1158015611410573d6000803e3d6000fd5b505050506040513d602081101561142657600080fd5b81019080805190602001909291905050505082600360008681526020019081526020016000206006016000828254039250508190555060006003600086815260200190815260200160002060060154116114b35760016003600086815260200190815260200160002060070160006101000a81548160ff021916908360018111156114ad57fe5b02179055505b7f67eae65bb7911aed846f0df6f838b85685b277d43a16a018b1998174c64576db846003600087815260200190815260200160002060000160009054906101000a900473ffffffffffffffffffffffffffffffffffffffff1660036000888152602001908152602001600020600101546003600089815260200190815260200160002060060154600360008a815260200190815260200160002060020160009054906101000a900460ff16600360008b815260200190815260200160002060030154600360008c815260200190815260200160002060040160009054906101000a900473ffffffffffffffffffffffffffffffffffffffff16600360008d815260200190815260200160002060050160009054906101000a900473ffffffffffffffffffffffffffffffffffffffff16600360008e815260200190815260200160002060070160009054906101000a900460ff16604051808a81526020018973ffffffffffffffffffffffffffffffffffffffff16815260200188815260200187815260200186600181111561164557fe5b81526020018581526020018473ffffffffffffffffffffffffffffffffffffffff1681526020018373ffffffffffffffffffffffffffffffffffffffff16815260200182600181111561169457fe5b8152602001995050505050505050505060405180910390a150505050565b6000833373ffffffffffffffffffffffffffffffffffffffff16311015611724576040517f08c379a000000000000000000000000000000000000000000000000000000000815260040180806020018281038252602f815260200180613e8c602f913960400191505060405180910390fd5b61172c613b0c565b8581600001818152505033816040019073ffffffffffffffffffffffffffffffffffffffff16908173ffffffffffffffffffffffffffffffffffffffff16815250508481602001818152505083838080601f016020809104026020016040519081016040528093929190818152602001838380828437600081840152601f19601f8201169050808301925050505050505081606001819052506002816080019060048111156117d757fe5b908160048111156117e457fe5b8152505080600460006002548152602001908152602001600020600082015181600001556020820151816001015560408201518160020160006101000a81548173ffffffffffffffffffffffffffffffffffffffff021916908373ffffffffffffffffffffffffffffffffffffffff1602179055506060820151816003019080519060200190611875929190613b5c565b5060808201518160040160006101000a81548160ff0219169083600481111561189a57fe5b02179055509050507fbde914517a4f17d675725fdbed2caecedc0f30224ba54e5e0fd5db61661d276760025487878787866080015160405180878152602001868152602001858152602001806020018360048111156118f557fe5b81526020018281038252858582818152602001925080828437600081840152601f19601f82011690508083019250505097505050505050505060405180910390a1600260008154809291906001019190505550600160025403915050949350505050565b60006004600083815260200190815260200160002060000154905060006004600084815260200190815260200160002060020160009054906101000a900473ffffffffffffffffffffffffffffffffffffffff16905060006003600084815260200190815260200160002060050160009054906101000a900473ffffffffffffffffffffffffffffffffffffffff1690508073ffffffffffffffffffffffffffffffffffffffff163373ffffffffffffffffffffffffffffffffffffffff161480611a4f57508173ffffffffffffffffffffffffffffffffffffffff163373ffffffffffffffffffffffffffffffffffffffff16145b611aa4576040517f08c379a0000000000000000000000000000000000000000000000000000000008152600401808060200182810382526044815260200180613ebb6044913960600191505060405180910390fd5b8073ffffffffffffffffffffffffffffffffffffffff163373ffffffffffffffffffffffffffffffffffffffff161415611b155760006004600085815260200190815260200160002060040160006101000a81548160ff02191690836004811115611b0b57fe5b0217905550611b83565b8173ffffffffffffffffffffffffffffffffffffffff163373ffffffffffffffffffffffffffffffffffffffff161415611b825760036004600085815260200190815260200160002060040160006101000a81548160ff02191690836004811115611b7c57fe5b02179055505b5b7fbde914517a4f17d675725fdbed2caecedc0f30224ba54e5e0fd5db61661d27678484600460008881526020019081526020016000206001015460046000898152602001908152602001600020600301600460008a815260200190815260200160002060040160009054906101000a900460ff166040518086815260200185815260200184815260200180602001836004811115611c1d57fe5b8152602001828103825284818154600181600116156101000203166002900481526020019150805460018160011615610100020316600290048015611ca35780601f10611c7857610100808354040283529160200191611ca3565b820191906000526020600020905b815481529060010190602001808311611c8657829003601f168201915b5050965050505050505060405180910390a150505050565b60056020528060005260406000206000915090508060000154908060010160009054906101000a900473ffffffffffffffffffffffffffffffffffffffff16905082565b6000611d0a336138b1565b15611d7d576040517f08c379a000000000000000000000000000000000000000000000000000000000815260040180806020018281038252601b8152602001807f53656c6c65722063616e6e6f74206265206120636f6e7472616374000000000081525060200191505060405180910390fd5b611d85613bdc565b87816000019073ffffffffffffffffffffffffffffffffffffffff16908173ffffffffffffffffffffffffffffffffffffffff16815250508681602001818152505082816080019073ffffffffffffffffffffffffffffffffffffffff16908173ffffffffffffffffffffffffffffffffffffffff1681525050611e1184670de0b6b3a7640000613996565b816060018181525050338160a0019073ffffffffffffffffffffffffffffffffffffffff16908173ffffffffffffffffffffffffffffffffffffffff168152505060008160e001906001811115611e6457fe5b90816001811115611e7157fe5b81525050858160c001818152505080600360008054815260200190815260200160002060008201518160000160006101000a81548173ffffffffffffffffffffffffffffffffffffffff021916908373ffffffffffffffffffffffffffffffffffffffff1602179055506020820151816001015560408201518160020160006101000a81548160ff02191690836001811115611f0957fe5b02179055506060820151816003015560808201518160040160006101000a81548173ffffffffffffffffffffffffffffffffffffffff021916908373ffffffffffffffffffffffffffffffffffffffff16021790555060a08201518160050160006101000a81548173ffffffffffffffffffffffffffffffffffffffff021916908373ffffffffffffffffffffffffffffffffffffffff16021790555060c0820151816006015560e08201518160070160006101000a81548160ff02191690836001811115611fd457fe5b021790555090505060008890508073ffffffffffffffffffffffffffffffffffffffff166323b872dd33306120098c8c613996565b6040518463ffffffff1660e01b8152600401808473ffffffffffffffffffffffffffffffffffffffff1681526020018373ffffffffffffffffffffffffffffffffffffffff1681526020018281526020019350505050602060405180830381600087803b15801561207957600080fd5b505af115801561208d573d6000803e3d6000fd5b505050506040513d60208110156120a357600080fd5b8101908080519060200190929190505050507f67eae65bb7911aed846f0df6f838b85685b277d43a16a018b1998174c64576db6000548a8a8a8a8a8a338a60e00151604051808a81526020018973ffffffffffffffffffffffffffffffffffffffff16815260200188815260200187815260200186600181111561212357fe5b81526020018581526020018473ffffffffffffffffffffffffffffffffffffffff1681526020018373ffffffffffffffffffffffffffffffffffffffff16815260200182600181111561217257fe5b8152602001995050505050505050505060405180910390a1612197600054600161390e565b6000819055506121aa60005460016138c4565b925050509695505050505050565b3373ffffffffffffffffffffffffffffffffffffffff166003600084815260200190815260200160002060050160009054906101000a900473ffffffffffffffffffffffffffffffffffffffff1673ffffffffffffffffffffffffffffffffffffffff1614612272576040517f08c379a0000000000000000000000000000000000000000000000000000000008152600401808060200182810382526032815260200180613cbe6032913960400191505060405180910390fd5b61229260036000848152602001908152602001600020600601548261390e565b5060006003600084815260200190815260200160002060000160009054906101000a900473ffffffffffffffffffffffffffffffffffffffff1690506000600360008581526020019081526020016000206001015490506122f38184613996565b8273ffffffffffffffffffffffffffffffffffffffff166370a08231336040518263ffffffff1660e01b8152600401808273ffffffffffffffffffffffffffffffffffffffff16815260200191505060206040518083038186803b15801561235a57600080fd5b505afa15801561236e573d6000803e3d6000fd5b505050506040513d602081101561238457600080fd5b810190808051906020019092919050505010156123ec576040517f08c379a000000000000000000000000000000000000000000000000000000000815260040180806020018281038252602d815260200180613d9a602d913960400191505060405180910390fd5b6001808111156123f857fe5b6003600086815260200190815260200160002060070160009054906101000a900460ff16600181111561242757fe5b14156124665760006003600086815260200190815260200160002060070160006101000a81548160ff0219169083600181111561246057fe5b02179055505b8173ffffffffffffffffffffffffffffffffffffffff166323b872dd33308685026040518463ffffffff1660e01b8152600401808473ffffffffffffffffffffffffffffffffffffffff1681526020018373ffffffffffffffffffffffffffffffffffffffff1681526020018281526020019350505050602060405180830381600087803b1580156124f757600080fd5b505af115801561250b573d6000803e3d6000fd5b505050506040513d602081101561252157600080fd5b8101908080519060200190929190505050507f67eae65bb7911aed846f0df6f838b85685b277d43a16a018b1998174c64576db846003600087815260200190815260200160002060000160009054906101000a900473ffffffffffffffffffffffffffffffffffffffff1660036000888152602001908152602001600020600101546003600089815260200190815260200160002060060154600360008a815260200190815260200160002060020160009054906101000a900460ff16600360008b815260200190815260200160002060030154600360008c815260200190815260200160002060040160009054906101000a900473ffffffffffffffffffffffffffffffffffffffff16600360008d815260200190815260200160002060050160009054906101000a900473ffffffffffffffffffffffffffffffffffffffff16600360008e815260200190815260200160002060070160009054906101000a900460ff16604051808a81526020018973ffffffffffffffffffffffffffffffffffffffff1681526020018881526020018781526020018660018111156126c557fe5b81526020018581526020018473ffffffffffffffffffffffffffffffffffffffff1681526020018373ffffffffffffffffffffffffffffffffffffffff16815260200182600181111561271457fe5b8152602001995050505050505050505060405180910390a150505050565b6000600460008381526020019081526020016000206000015490506001600481111561275a57fe5b6004600084815260200190815260200160002060040160009054906101000a900460ff16600481111561278957fe5b146127fc576040517f08c379a00000000000000000000000000000000000000000000000000000000081526004018080602001828103825260208152602001807f436f756e7465722052657175657374206d75737420626520616363657074656481525060200191505060405180910390fd5b6004600083815260200190815260200160002060020160009054906101000a900473ffffffffffffffffffffffffffffffffffffffff1673ffffffffffffffffffffffffffffffffffffffff163373ffffffffffffffffffffffffffffffffffffffff161461286a57600080fd5b6000806003600084815260200190815260200160002060000160009054906101000a900473ffffffffffffffffffffffffffffffffffffffff169050600360008481526020019081526020016000206001015491508073ffffffffffffffffffffffffffffffffffffffff1663a9059cbb33846040518363ffffffff1660e01b8152600401808373ffffffffffffffffffffffffffffffffffffffff16815260200182815260200192505050602060405180830381600087803b15801561293057600080fd5b505af1158015612944573d6000803e3d6000fd5b505050506040513d602081101561295a57600080fd5b81019080805190602001909291905050505061298d600360008581526020019081526020016000206006015460016138c4565b600360008581526020019081526020016000206006018190555060006003600085815260200190815260200160002060060154116129fe5760016003600085815260200190815260200160002060070160006101000a81548160ff021916908360018111156129f857fe5b02179055505b600180811115612a0a57fe5b6003600085815260200190815260200160002060020160009054906101000a900460ff166001811115612a3957fe5b1415612dac5760006003600085815260200190815260200160002060040160009054906101000a900473ffffffffffffffffffffffffffffffffffffffff16905060046000858152602001908152602001600020600101549250828173ffffffffffffffffffffffffffffffffffffffff166370a08231336040518263ffffffff1660e01b8152600401808273ffffffffffffffffffffffffffffffffffffffff16815260200191505060206040518083038186803b158015612afb57600080fd5b505afa158015612b0f573d6000803e3d6000fd5b505050506040513d6020811015612b2557600080fd5b81019080805190602001909291905050501015612b8d576040517f08c379a0000000000000000000000000000000000000000000000000000000008152600401808060200182810382526029815260200180613d716029913960400191505060405180910390fd5b828173ffffffffffffffffffffffffffffffffffffffff1663dd62ed3e33306040518363ffffffff1660e01b8152600401808373ffffffffffffffffffffffffffffffffffffffff1681526020018273ffffffffffffffffffffffffffffffffffffffff1681526020019250505060206040518083038186803b158015612c1357600080fd5b505afa158015612c27573d6000803e3d6000fd5b505050506040513d6020811015612c3d57600080fd5b81019080805190602001909291905050501015612ca5576040517f08c379a0000000000000000000000000000000000000000000000000000000008152600401808060200182810382526038815260200180613de86038913960400191505060405180910390fd5b8073ffffffffffffffffffffffffffffffffffffffff166323b872dd336003600088815260200190815260200160002060050160009054906101000a900473ffffffffffffffffffffffffffffffffffffffff16866040518463ffffffff1660e01b8152600401808473ffffffffffffffffffffffffffffffffffffffff1681526020018373ffffffffffffffffffffffffffffffffffffffff1681526020018281526020019350505050602060405180830381600087803b158015612d6a57600080fd5b505af1158015612d7e573d6000803e3d6000fd5b505050506040513d6020811015612d9457600080fd5b81019080805190602001909291905050505050612ebb565b6004600084815260200190815260200160002060010154915081341015612e1e576040517f08c379a0000000000000000000000000000000000000000000000000000000008152600401808060200182810382526029815260200180613d716029913960400191505060405180910390fd5b6003600084815260200190815260200160002060050160009054906101000a900473ffffffffffffffffffffffffffffffffffffffff1673ffffffffffffffffffffffffffffffffffffffff163460405180600001905060006040518083038185875af1925050503d8060008114612eb2576040519150601f19603f3d011682016040523d82523d6000602084013e612eb7565b606091505b5050505b7fbde914517a4f17d675725fdbed2caecedc0f30224ba54e5e0fd5db61661d27678484600460008781526020019081526020016000206001015460046000898152602001908152602001600020600301600460008a815260200190815260200160002060040160009054906101000a900460ff166040518086815260200185815260200184815260200180602001836004811115612f5557fe5b8152602001828103825284818154600181600116156101000203166002900481526020019150805460018160011615610100020316600290048015612fdb5780601f10612fb057610100808354040283529160200191612fdb565b820191906000526020600020905b815481529060010190602001808311612fbe57829003601f168201915b5050965050505050505060405180910390a17f67eae65bb7911aed846f0df6f838b85685b277d43a16a018b1998174c64576db836003600086815260200190815260200160002060000160009054906101000a900473ffffffffffffffffffffffffffffffffffffffff16600360008781526020019081526020016000206001015460036000888152602001908152602001600020600601546003600089815260200190815260200160002060020160009054906101000a900460ff16600360008a815260200190815260200160002060030154600360008b815260200190815260200160002060040160009054906101000a900473ffffffffffffffffffffffffffffffffffffffff16600360008c815260200190815260200160002060050160009054906101000a900473ffffffffffffffffffffffffffffffffffffffff16600360008d815260200190815260200160002060070160009054906101000a900460ff16604051808a81526020018973ffffffffffffffffffffffffffffffffffffffff16815260200188815260200187815260200186600181111561317f57fe5b81526020018581526020018473ffffffffffffffffffffffffffffffffffffffff1681526020018373ffffffffffffffffffffffffffffffffffffffff1681526020018260018111156131ce57fe5b8152602001995050505050505050505060405180910390a150505050565b60006003600083815260200190815260200160002060050160009054906101000a900473ffffffffffffffffffffffffffffffffffffffff16905060006003600084815260200190815260200160002060000160009054906101000a900473ffffffffffffffffffffffffffffffffffffffff1690506000600360008581526020019081526020016000206001015490508173ffffffffffffffffffffffffffffffffffffffff1663a9059cbb33836040518363ffffffff1660e01b8152600401808373ffffffffffffffffffffffffffffffffffffffff16815260200182815260200192505050602060405180830381600087803b1580156132ee57600080fd5b505af1158015613302573d6000803e3d6000fd5b505050506040513d602081101561331857600080fd5b81019080805190602001909291905050505050505050565b60046020528060005260406000206000915090508060000154908060010154908060020160009054906101000a900473ffffffffffffffffffffffffffffffffffffffff1690806003018054600181600116156101000203166002900480601f01602080910402602001604051908101604052809291908181526020018280546001816001161561010002031660029004801561340e5780601f106133e35761010080835404028352916020019161340e565b820191906000526020600020905b8154815290600101906020018083116133f157829003601f168201915b5050505050908060040160009054906101000a900460ff16905085565b6000801515613439336138b1565b1515146134ae576040517f08c379a000000000000000000000000000000000000000000000000000000000815260040180806020018281038252601b8152602001807f53656c6c65722063616e6e6f74206265206120636f6e7472616374000000000081525060200191505060405180910390fd5b6134b6613bdc565b86816000019073ffffffffffffffffffffffffffffffffffffffff16908173ffffffffffffffffffffffffffffffffffffffff16815250508581602001818152505061350a83670de0b6b3a7640000613996565b816060018181525050338160a0019073ffffffffffffffffffffffffffffffffffffffff16908173ffffffffffffffffffffffffffffffffffffffff168152505060008160e00190600181111561355d57fe5b9081600181111561356a57fe5b81525050848160c001818152505080600360008054815260200190815260200160002060008201518160000160006101000a81548173ffffffffffffffffffffffffffffffffffffffff021916908373ffffffffffffffffffffffffffffffffffffffff1602179055506020820151816001015560408201518160020160006101000a81548160ff0219169083600181111561360257fe5b02179055506060820151816003015560808201518160040160006101000a81548173ffffffffffffffffffffffffffffffffffffffff021916908373ffffffffffffffffffffffffffffffffffffffff16021790555060a08201518160050160006101000a81548173ffffffffffffffffffffffffffffffffffffffff021916908373ffffffffffffffffffffffffffffffffffffffff16021790555060c0820151816006015560e08201518160070160006101000a81548160ff021916908360018111156136cd57fe5b021790555090505060008790508073ffffffffffffffffffffffffffffffffffffffff166323b872dd33306137028b8b613996565b6040518463ffffffff1660e01b8152600401808473ffffffffffffffffffffffffffffffffffffffff1681526020018373ffffffffffffffffffffffffffffffffffffffff1681526020018281526020019350505050602060405180830381600087803b15801561377257600080fd5b505af1158015613786573d6000803e3d6000fd5b505050506040513d602081101561379c57600080fd5b8101908080519060200190929190505050507f67eae65bb7911aed846f0df6f838b85685b277d43a16a018b1998174c64576db60005489898989896000338a60e00151604051808a81526020018973ffffffffffffffffffffffffffffffffffffffff16815260200188815260200187815260200186600181111561381d57fe5b81526020018581526020018473ffffffffffffffffffffffffffffffffffffffff1681526020018373ffffffffffffffffffffffffffffffffffffffff16815260200182600181111561386c57fe5b8152602001995050505050505050505060405180910390a1613891600054600161390e565b6000819055506138a460005460016138c4565b9250505095945050505050565b600080823b905060008111915050919050565b600061390683836040518060400160405280601e81526020017f536166654d6174683a207375627472616374696f6e206f766572666c6f770000815250613a1c565b905092915050565b60008082840190508381101561398c576040517f08c379a000000000000000000000000000000000000000000000000000000000815260040180806020018281038252601b8152602001807f536166654d6174683a206164646974696f6e206f766572666c6f77000000000081525060200191505060405180910390fd5b8091505092915050565b6000808314156139a95760009050613a16565b60008284029050828482816139ba57fe5b0414613a11576040517f08c379a0000000000000000000000000000000000000000000000000000000008152600401808060200182810382526021815260200180613dc76021913960400191505060405180910390fd5b809150505b92915050565b6000838311158290613ac9576040517f08c379a00000000000000000000000000000000000000000000000000000000081526004018080602001828103825283818151815260200191508051906020019080838360005b83811015613a8e578082015181840152602081019050613a73565b50505050905090810190601f168015613abb5780820380516001836020036101000a031916815260200191505b509250505060405180910390fd5b5060008385039050809150509392505050565b604051806040016040528060008152602001600073ffffffffffffffffffffffffffffffffffffffff1681525090565b6040518060a001604052806000815260200160008152602001600073ffffffffffffffffffffffffffffffffffffffff1681526020016060815260200160006004811115613b5657fe5b81525090565b828054600181600116156101000203166002900490600052602060002090601f016020900481019282601f10613b9d57805160ff1916838001178555613bcb565b82800160010185558215613bcb579182015b82811115613bca578251825591602001919060010190613baf565b5b509050613bd89190613c79565b5090565b604051806101000160405280600073ffffffffffffffffffffffffffffffffffffffff1681526020016000815260200160006001811115613c1957fe5b815260200160008152602001600073ffffffffffffffffffffffffffffffffffffffff168152602001600073ffffffffffffffffffffffffffffffffffffffff1681526020016000815260200160006001811115613c7357fe5b81525090565b5b80821115613c92576000816000905550600101613c7a565b509056fe546869732053656c6c2052657175657374206973206e6f206c6f6e67657220666f722073616c654f6e6c792053656c6c6572206f662074686573652072657175657374732063616e206465706f7369742052657175657374734f6e6c792053656c6c65722063616e20416363657074206120436f756e74657220526571756573744f666665722063616e6e6f74206265206163636570746564206279206120636f6e74726163744f6e6c792053656c6c6572206f662074686573652072657175657374732063616e207769746864726177205265717565737473596f7520646f6e742068617665207468652066756e647320746f20627579207468697320746f6b656e53656c6c6572206d7573742068617665207468652066756e6473206265696e672070757420666f722073616c65536166654d6174683a206d756c7469706c69636174696f6e206f766572666c6f774275796572206e6565647320746f20617070726f766520726571756972656420746f6b656e7320746f20636f6e747261637420666972737453656c6c65722063616e6e6f742041636365707420686973206f776e206f6666657253656c6c6572206d757374206861766520656e6f756768207265717565737473206465706f736974656420746f2077697468647261772074686520737065636966696320616d6f756e74596f7520646f206e6f742068617665207468652066756e647320746f206d616b65207375636820616e206f666665724f6e6c792053656c6c6572206f72204f776e6572206f662074686520436f756e74657220726571756573742063616e2063616e63656c20636f7574657252657175657374a2646970667358221220a1d76747484f07d423ad8784c74db15f0d490db0315168ca947b8b3c0de0412564736f6c634300060c0033",
  "compiler": {
    "name": "solc",
    "version": "0.6.12+commit.27d51765.Emscripten.clang",
    "optimizer": {
      "enabled": false,
      "runs": 200
    },
    "evmVersion": "petersburg"
  }
}